:020000040000FA
:10000000501F20208D01000091010000930100008D
:1000100000000000000000000000000000000000E0
:10002000000000000000000000000000950100003A
:10003000000000000000000097010000990100008E
:100040009B010000F52300009B0100009B010000C4
:100050009B0100009B0100009B0100009B01000030
:10006000000000009B0100009B0100000000000058
:10007000000000009B0100009B010000994D000062
:100080009B0100009B0100009B0100009B01000000
:100090009B0100009B010000000000000000000028
:1000A0009B0100009B010000000000000000000018
:1000B0009B010000000000009B0100009B0100006C
:1000C00000F002F800F052F812A030C808382418E6
:1000D0002D18AC4201D100F049F80FCCA246AB4636
:1000E0000CA730CF2D1B083F3F197C427F1E544484
:1000F0002D090426F441641EAC4201D300F036F809
:100100000126334200D0FB1A3343984754465D46DC
:10011000DFE700006C7900008C790000000000002F
:10012000103A02D378C878C1FAD8520701D330C840
:1001300030C101D504680C60704700000000000069
:100140007047000000000000002300240025002666
:10015000103A01D378C1FBD8520700D330C100D583
:100160000B6070471FB51FBD10B510BD01F0C2F880
:100170001146FFF7F7FF05F001F801F0DAF803B4D4
:10018000FFF7F2FF03BC04F035FE0000064800470D
:10019000FEE7FEE7FEE7FEE7FEE7FEE70348044969
:1001A000024A044B70470000C1000000501E20208E
:1001B000501F2020501E202010B5044603E004F0FC
:1001C00063FF401C08D020780549641C0028F6D144
:1001D0000A2004F059FF10BD0020C04310BD0000EC
:1001E00048192020002203098B4273D3030A8B4253
:1001F00058D3030B8B423CD3030C8B4221D312E028
:1002000003460B437FD4002243088B4274D3030977
:100210008B425FD3030A8B4244D3030B8B4228D318
:10022000030C8B420DD30902FF2212BA030C8B423E
:1002300002D31212090265D0030B8B4219D300E0DE
:10024000090AC30B8B4201D3CB03C01A5241830B63
:100250008B4201D38B03C01A5241430B8B4201D313
:100260004B03C01A5241030B8B4201D30B03C01A3C
:100270005241C30A8B4201D3CB02C01A5241830AB6
:100280008B4201D38B02C01A5241430A8B4201D3E5
:100290004B02C01A5241030A8B4201D30B02C01A0F
:1002A0005241CDD2C3098B4201D3CB01C01A524176
:1002B00083098B4201D38B01C01A524143098B42FF
:1002C00001D34B01C01A524103098B4201D30B01E8
:1002D000C01A5241C3088B4201D3CB00C01A52410D
:1002E00083088B4201D38B00C01A524143088B42D2
:1002F00001D34B00C01A5241411A00D2014652416B
:10030000104670475DE0CA0F00D04942031000D389
:10031000404253409C46002203098B422DD3030ADE
:100320008B4212D38901FC2212BA030A8B420CD3EE
:10033000890192118B4208D3890192118B4204D317
:1003400089013AD0921100E08909C3098B4201D397
:10035000CB01C01A524183098B4201D38B01C01AD1
:10036000524143098B4201D34B01C01A5241030948
:100370008B4201D30B01C01A5241C3088B4201D3F7
:10038000CB00C01A524183088B4201D38B00C01AA4
:100390005241D9D243088B4201D34B00C01A52417B
:1003A000411A00D201465241104663465B1001D308
:1003B0004042002B00D54942704763465B1000D392
:1003C000404201B50449002802DC491C084000E015
:1003D0000846C046C04602BDFFFFFF7F704770471A
:1003E000704700000246C80FC00781434B0030B57C
:1003F0004B405B009B0D20D01923DB06C91801235D
:100400001B05994220DB0324A40704251346AB40B7
:100410000BD3002B04D1EB0613409B00E34204D422
:1004200001246407002312195941FF231B05994237
:100430000BD2C9000143500F09E0CB0204D50143A0
:100440000803024305D0054830BDFF21C905084314
:1004500030BD084607210905884330BD0000C07F34
:10046000F0B50C46871A9C410D46861A9D4103D271
:10047000C01BA141D21963410D0D1F0DC94EEC1BCC
:10048000AE435CD07F057F0D0026002F51D02D0597
:10049000AC46A943DD020123ED0A1B051D432023C1
:1004A0001B1B24D41746E740381871412F46E740FC
:1004B000CC199D402818314661410C0D27D161446B
:1004C0009A4013D50023401C594152000ED14008D8
:1004D000400001224B005205D34207D305204007BC
:1004E000C14201D5B04900E0B0493046F0BD6B00D3
:1004F000002A00D001229A181F23203C1B1B01D583
:10050000002302E0E540281871410C0DD7D00124EA
:1005100024050919C407CD0740084908E40F2843FA
:100520006144002CD5D00024401C61419A40D0D1B8
:10053000CDE76A05520DD9D1C90FC907D5E79C4D42
:100540004E00002801D0012400E0002434195F008F
:10055000002A01D0012600E00026BE19954FAC42CA
:100560000CD8AE420AD8B44206D001256D05EC4243
:10057000BCD010461946F0BD9942FCD00020394647
:10058000F0BDF0B51FB40C460F46811A9F412546B9
:10059000861A9D4106D20125ED076F40401ABC41E5
:1005A00052187B41210D1E0D8D1BAC467D4D8D4398
:1005B0007ED075056D0D7CD00D05AE46AC431B039A
:1005C0001B0B794D52429D41202366469B1B14D341
:1005D0001746F740381800260090744160462F46B1
:1005E0000741E41900989D402818664116D47146C9
:1005F00071189A4025D5012320E093182A466A41B4
:100600005200002B00D0521C1E23203E9B1B002BAF
:1006100061DD3541EE1728186641E8D500187641AE
:100620005B1C9A4000D3401C4B05F3181524E34093
:1006300010D3002B52D071467118D30FC01802D3BB
:10064000491C05B0F0BD0123DB079A42F9D14008EF
:100650004000F6E701225205B21801D1002853D01C
:100660000123CC0ADB029943891E002A08D1020C1F
:1006700003D0020C0004103902E0024600202039A9
:100680000023550B05D112020823550B01D152014D
:100690000D23550C01D112011B1DD50C01D1920067
:1006A0009B1C150D01D152005B1C2025EE1A01E0A8
:1006B0002CE022E00546F54015439840CA1AE107B0
:1006C00069181305C918002ABBDA03204007081867
:1006D000C10FC9070FE071466118B2E7F107400882
:1006E0000843711071444A000CD001235B059A4203
:1006F000A7D2C90FC9070020A3E74905490D26D194
:10070000002001E00028F4D100219AE7284D66007E
:10071000002801D0012100E0002171185F00002AAB
:1007200001D0012600E00026BE19224FA94210D8B0
:10073000AE420ED8B14208D001256D05E94206D07F
:100740001946A802414010467BE79C4201D0214651
:1007500077E70020394674E710B50C465C4005D5B4
:100760000124E4076340FFF70CFF10BDFFF778FE9C
:1007700010BD30B40C465C4004D50124E40763404E
:1007800030BC6DE630BCFCE670B50124E407614086
:100790000D465D4002D4FFF763FE70BD6340FFF776
:1007A000F0FE70BDFF0700000000F0FF0000F07FCA
:1007B0000000E0FF0000F87FF0B5F94D0C091E09BC
:1007C0002C402E402F468BB0A7437DD0B543FCD0A4
:1007D000002E7AD0002CFCD00D465D40ED0F254355
:1007E000AC1BFF25AD0464190894C502440DC90271
:1007F0002143500DDC0204430120C00701430443A0
:10080000D2020191200C110C00958C460104234664
:100810008B430A9161460904E24D8A430991010A1A
:100820007D4449198039097805464D4301266D18E4
:10083000F605751B6943C90C640B891C4C4364188D
:10084000B5012C1B250C2E04B4434C434D43210C05
:10085000691889090591009DE90701D00121C9079F
:1008600004912C4601996708CD072F434C08059D3C
:10087000E10B4D432D0C29466646754302950D4606
:1008800045432E46029D7D1BB44100950D465D43B8
:1008900001942C0C2F040D465543AE462D0C3D43C0
:1008A000029503947546049C2D04641B049406D29F
:1008B000029C039D641C002675410395029401ACC3
:1008C00070CC009F7D1B01E03EE162E1B441090470
:1008D0000095079101940599A4086143090C0C4601
:1008E0004443650BE7040C4666467443A646640B16
:1008F0003C43039502947446049DE4042C1B049429
:1009000006D2029C039D641C002675410395029447
:1009100001AC70CC009F7D1BB44101940C465C433C
:100920000095650FE7000C465443A646640F3C4310
:10093000039502947446049DE4002C1B049406D293
:10094000029C039D641C002675410395029401AC32
:1009500070CC009F7D1BB441AE09AF06049DC90059
:10096000AD092F43049DA406AD060495079D3443AD
:1009700069180791059DE10B4D432D0C29466646EC
:10098000754302950D4645432E46029D7D1BB4419D
:1009900000950D465D4301942C0C2F040D465543E4
:1009A000AE462D0C3D43029503947546049C2D04E0
:1009B000641B049406D2029C039D641C00267541AE
:1009C0000395029401AC70CC009F7D1BB44101944F
:1009D0008C050694079C890A611800950791019C73
:1009E0000599A4086143090C0D464543680BEF04C3
:1009F0000D46644665436C0B3C43049FED047D1B30
:100A0000AC4602D20025641C6841009E019D371B44
:100A100085410846584301950C46460FC50054438E
:100A2000600F28436546E4002C1B02D20025401CC1
:100A30006E41019D3F1AB5412846BD0980062843F5
:100A40008446A009BF064E020699A40676180743FD
:100A5000079D002068410A99079019430020099BCF
:100A600000906046FF1913434041E20F64003A438F
:100A7000A4460446D71A8C41A04203D90120009015
:100A800020463A46C70F941840416246D20F22438F
:100A9000644664000494009CBE466400D71AA446D1
:100AA000044602978C417746002F01D1A04204D919
:100AB0006046401C8446029A2046C40FA6469418FD
:100AC0004041049A0546D20F224364466400D31A7B
:100AD0008D417146002901D1A84202D928461A4603
:100AE000641C10430122002800D01643610200203C
:100AF000079B891904465C410223002C02DB49183C
:100B000013466441089DCE0A2D145D194B056705F7
:100B1000E10A2C050D1908993E43C9076940002BCD
:100B200008D0934006D30022761C5141002B01D1FE
:100B3000760876001C4A002D43DB154241D0AA43BB
:100B40003FD030460BB0F0BD06180D464D41174C56
:100B50007642AC411AD395181C465C41134A6D424B
:100B6000A24113D3012252054C00D4420AD15C00A9
:100B7000D4420BD04B4002D592021143E2E7490028
:100B80004908DFE75940C90FC90718E000200849A4
:100B9000D8E7054801420DD10342F7D0F2E7000043
:100BA0000000FF07285600000000F07F0000E0FF73
:100BB0000000F87F114859400143C0124140002015
:100BC000C0E70123089A9B069A4205DC03225207DC
:100BD0008918C90FC907B5E7052252078918074ABE
:100BE0001143D2125140ADE770B515461C4602467E
:100BF0000B4628462146FFF7DFFD70BDFFFFFF7F54
:100C000030B50346CA02400D1043164D164C0A1566
:100C100002D02043002A06DBAA1A002A12DDD040A7
:100C2000FF2A0BDC30BD5205520D01D140004008B7
:100C3000AA1A07D4D0404042FF2A01DD002030BD6F
:100C40000028FCDD4A00002B01D0012000E000203C
:100C5000101801225205D042F0D8C817C043604096
:100C600030BD00001E040000000000801F22030CA5
:100C700002D10F22000402D0030E03D004E00020B2
:100C8000014670470002083A030F01D10001121F0C
:100C9000830F01D18000921E002801DB4000521E0C
:100CA000120551184205C012411810467047C10F75
:100CB000C90700D04042012292071143D6E7012123
:100CC0008907D3E7F0B58B4C0F09254689B0BD43A2
:100CD0007BD01D092646AE43FAD00E465E40274023
:100CE000F60F3E43254071D024012142FBD0FF2462
:100CF000AD19A4042D1B039501252D05DB02DB0A8C
:100D0000C9022B43C90A29431E010901040F130F0D
:100D1000050121431701880B820391432D098C465D
:100D2000A90B1E438A039543B30B9A0396433F09CD
:100D3000BA0B9403A74302962E467E430497B64609
:100D40004E19D7190C460196544305977E43371B1D
:100D50007646BF1B3601B646BE0B36190096764660
:100D6000BC043719009C01D3641C00946400002F5C
:100D700001D001263443029E049F754366467E439C
:100D80000496760034196E0034190094029C019E7A
:100D90001C196643751BAE46069465464519059CAD
:100DA00005956C43594375460891691A0191049E53
:100DB00001465143A41B0491611A009C0791E1066E
:100DC00005D061090122114302E072E06EE0610981
:100DD000089D00272C0A2D066918049D7C412A0ACB
:100DE0002D066918019D6241AC0DAD026D1854418C
:100DF000079A910D920255196141029A644658432F
:100E00005443069B059A5A43121A131B9A0E9B01D0
:100E10005B187A41010B0005C3185141220A2006D4
:100E200044195A419A4200D2491C01204002814291
:100E300003D315230226F64302E014230326F643C8
:100E40002020C51AA9401746AF40DA400A43204681
:100E50000399D8400914731819055118039A384397
:100E6000D2075140AC4009D00122944006D3002261
:100E7000401C5141002C01D1400840001E4A9342C1
:100E800012D3012203989206904207DB0520400707
:100E900009181A480143C012414004E003204007EA
:100EA0000818C10FC907002009B0F0BD0020F107E4
:100EB000FAE705180C464C4111486D42A04115D384
:100EC00094181A465A410E48644290410ED30120AC
:100ED0004A004005824209D35A00824206D3594053
:100EE000C90F084AC90700201143DDE70020064961
:100EF000DAE700000000FF07FE070000FFFFFF7FAA
:100F00000000E0FF0000F07F0000F87F0121C9052C
:100F10000123411842001B06D3185B0E0AD0C110F2
:100F20000722D206891840075242D14201D5520009
:100F300089187047090208D50146002A03D0C10F5D
:100F4000C9070020704710467047420202D00020B7
:100F500002497047072109050143F4E70000F87FC3
:100F6000F0B5FF252D04C609C209FF2704462E400F
:100F70000137CB093E4348402A402B400746002A10
:100F80006BD0002B69D0AA4267D0AB4265D0002855
:100F900000DA32460125ED0529432C4309022002DF
:100FA000090AD21A4B0C7F24E31A434C000A7C44F2
:100FB000E35C7D242404121914145B00A2188842F7
:100FC00001D3521C00E0400049420C465C4324110E
:100FD0005C43DB016415E318040A5C43C502200D81
:100FE0000C4644436419250A5D432303EC0C0D466B
:100FF000654300030019EB184C42A34201D35B1870
:10100000401CD4052018002B07D05B00C91804D35E
:10101000401C002901D1400840003F2189048A4238
:1010200009D3002A08DC1106090F04D0032149075F
:101030004018C00FC007F0BD0122410012068918F8
:101040007F2252069142F6D205214907C84201D5B6
:101050009010F0BDFF20C005F0BD002F00DA324631
:101060001648AA4207D2AB4205D21902090E17D080
:10107000F80FC007F0BDFF2563002D06AB42F9D87D
:101080004900A942F6D8AB4201D1A942F2D0A94207
:1010900001D1002101E061004908D0050843F0BDFD
:1010A0001102090EFBD0FF200243D005F0BD0A4615
:1010B0000146104654E700001A4F00000000C07FB0
:1010C00010B501469E240002CA15A307002A02D0CB
:1010D0001843002A04DBA21A002A0CDDD04010BD00
:1010E0001206120E01D140004008A21A03D4D040CB
:1010F00040420028F3DDFF2248001206904201D949
:10110000002010BDC817C043584010BD1F22030C5B
:1011100002D10F2200041CD0030E01D10002083AB4
:10112000030F01D10001121F830F01D18000921E15
:10113000002801DB4000521ED2055118021251183E
:101140001922904004D3491C002801D149084900C4
:1011500008467047C10FC90700D0404201229207DC
:101160001143D3E701218907D0E710B500F008F853
:10117000006810BD10B5044600F002F8046010BD10
:101180000048704750002020F8B5264C4E00069DC0
:10119000A6420AD8A64201D1002806D15E00A64286
:1011A00003D8A6420AD1002A08D00D2424042542DF
:1011B00033D02946002000F0C4F8F8BD0C461C438B
:1011C00011D4994207D0C81A02D3EFF30080F8BDBA
:1011D000EFF30080F8BD801A02D3EFF30080F8BD72
:1011E000EFF30080F8BD09242407E5008B4207D007
:1011F000581A02D3EFF3008006E0EFF3008007E017
:10120000101A03D3EFF30080A04303E0EFF3008054
:10121000A043284380F30088F8BD009500F0A8F8AB
:10122000F8BD00000000E0FF70B505464800440D21
:10123000124B0020002C0AD0634008D09A4206DAF4
:101240006642B24203DD12054019514170BD002CC7
:1012500008D0002B09D0C90FC907002AF6DB084ABD
:10126000114370BDC90FC90770BD28460A0310435A
:1012700002D00020034970BD284670BDFF07000062
:101280000000F07F0000F87F10B5FF231B0644002C
:101290009C421DD84C009C421AD80346124A0B436C
:1012A00007D4401A02D3EFF3008010BDEFF30080A3
:1012B00010BD081A03D3EFF30080904305E0EFF36D
:1012C000008001219043C907084380F3008810BDC6
:1012D0000D231B041A4204D01146002000F031F8FF
:1012E00010BD00F04FF810BD00000090004870479E
:1012F000500020207546FFF7F9FFAE46050069460D
:101300005346C008C000854618B020B5FEF746FF1A
:1013100060BCB64600260027C0C5C0C5C0C5C0C554
:10132000C0C5C0C5C0C5C0C5403D490849008D46BF
:10133000704710B50446C046C0462046FEF71FFF62
:1013400010BDC80212D54803400F002804D0C803BE
:10135000C043012188407047EFF30080000100097D
:1013600003210907084380F3008870470020704775
:1013700010B500200249029A00F00CF810BD0000E0
:101380000000F87F10B5024800F004F810BD00001E
:101390000000C07F10B50C461107090F092904D0C1
:1013A0000A290AD008290CD104E011460820FFF7C9
:1013B000C8FF06E0510606D501E0510601D501201F
:1013C000C007214610BDD10607D501010909CC0887
:1013D0004907000E0006044309E0410F20024907B7
:1013E000000A0143200E00061D22D1410143084698
:1013F000E7E70000B0B5434980220A6111231B02D0
:10140000C018002308E040250D61000207251D4398
:101410000C6008330F2D45D208240C61050402D45A
:1014200040250D6101E040250D600C600C61450414
:1014300002D440250D6101E040250D600C600C6177
:10144000850402D440250D6101E040250D600C604B
:101450000C61C50402D440250D6101E040250D60FA
:101460000C600C61050502D440250D6101E04025AA
:101470000D600C600C61450502D440250D6101E052
:1014800040250D600C600C61850502D440250D617E
:1014900001E040250D600C600C61C505B3D5402509
:1014A0000D60B2E70A60B0BDF0B58DB00193029255
:1014B000144F08243C6004223A6004923A610025EB
:1014C000114B2A46FFF778F90126B2070F4BFFF7B9
:1014D000F9FBFFF795FB820BB1030B91491E0091BD
:1014E0000A40330271020891B1020791F10206919C
:1014F0003103059171030A91F1030C911299039143
:10150000099310E090320A4080842E41E17A6441D0
:10151000402139611B0207212E460E433C613C608D
:1015200008350F2E4BD20C990B4202D14021396164
:1015300001E0402139603C613C600B990B4202D1D3
:101540004021396101E0402139603C613C600A99E9
:101550000B4202D14021396101E0402139603C61F8
:101560003C6005990B4202D14021396101E04021E4
:1015700039603C613C6006990B4202D140213961DF
:1015800001E0402139603C613C6007990B4202D187
:101590004021396101E0402139603C613C6008999B
:1015A0000B4202D14021396101E0402139603C61A8
:1015B0003C6009990B42ABD040213960AAE7049BFB
:1015C0003B603C603B603B61009B184021231E0256
:1015D000002309E040253D6136021D460D433C6174
:1015E0003C6008330F2D4BD20C9D2E4202D140257A
:1015F0003D6101E040253D603C613C600B9D2E4219
:1016000002D140253D6101E040253D603C613C60E8
:101610000A9D2E4202D140253D6101E040253D60FA
:101620003C613C60059D2E4202D140253D6101E0B8
:1016300040253D603C613C60069D2E4202D1402524
:101640003D6101E040253D603C613C60079D2E42CC
:1016500002D140253D6101E040253D603C613C6098
:10166000089D2E4202D140253D6101E040253D60AC
:101670003C613C60099D2E42ACD040253D60ABE70B
:10168000049E3E6003239B03039D1D432B46029D46
:10169000002D03D0012D00D124E13DE203933C60F5
:1016A0003E603E610B9B18430023064609E040253F
:1016B0003D6136021D460D433C613C6008330F2DF1
:1016C0004BD20C9D2E4202D140253D6101E04025C8
:1016D0003D603C613C600B9D2E4202D140253D6146
:1016E00001E040253D603C613C600A9D2E4202D1F4
:1016F00040253D6101E040253D603C613C60059D29
:101700002E4202D140253D6101E040253D603C6113
:101710003C60069D2E4202D140253D6101E04025FE
:101720003D603C613C60079D2E4202D140253D61F9
:1017300001E040253D603C613C60089D2E4202D1A5
:1017400040253D6101E040253D603C613C60099DD4
:101750002E42ACD040253D60ABE7049B3B603C6033
:101760003B603B610B9B1A430023164609E0402572
:101770003D6136021D460D433C613C6008330F2D30
:101780004BD20C9D2E4202D140253D6101E0402507
:101790003D603C613C600B9D2E4202D140253D6185
:1017A00001E040253D603C613C600A9D2E4202D133
:1017B00040253D6101E040253D603C613C60059D68
:1017C0002E4202D140253D6101E040253D603C6153
:1017D0003C60069D2E4202D140253D6101E040253E
:1017E0003D603C613C60079D2E4202D140253D6139
:1017F00001E040253D603C613C60089D2E4202D1E5
:1018000040253D6101E040253D603C613C60099D13
:101810002E42ACD040253D60ABE7049B3B603C6072
:101820003B603B610023039E09E040253D61360299
:101830001D460D433C613C6008330F2D4BD20C9D7F
:101840002E4202D140253D6101E040253D603C61D2
:101850003C600B9D2E4202D140253D6101E04025B8
:101860003D603C613C600A9D2E4202D140253D61B5
:1018700001E040253D603C613C60059D2E4202D167
:1018800040253D6101E040253D603C613C60069D96
:101890002E4202D140253D6101E040253D603C6182
:1018A0003C60079D2E4202D140253D6101E040256C
:1018B0003D603C613C60089D2E4202D140253D6167
:1018C00001E040253D603C613C60099D2E42ACD06A
:1018D00040253D60ABE7049E3E60039B029D012DC9
:1018E00000D019E103933C603E603E610C9B1843BD
:1018F000002309E040253D6100021D460D433C6187
:101900003C6008330F2D4BD20C9D284202D140255C
:101910003D6101E040253D603C613C600B9D2842FB
:1019200002D140253D6101E040253D603C613C60C5
:101930000A9D284202D140253D6101E040253D60DD
:101940003C613C60059D284202D140253D6101E09B
:1019500040253D603C613C60069D284202D1402507
:101960003D6101E040253D603C613C60079D2842AF
:1019700002D140253D6101E040253D603C613C6075
:10198000089D284202D140253D6101E040253D608F
:101990003C613C60099D2842ACD040253D60ABE7EE
:1019A0003E603C603E603E610C980243002009E0CE
:1019B00040233B61120203460B433C613C6008300C
:1019C0000F2B4BD20C9B1A4202D140233B6101E00A
:1019D00040233B603C613C600B9B1A4202D1402398
:1019E0003B6101E040233B603C613C600A9B1A4242
:1019F00002D140233B6101E040233B603C613C60FD
:101A0000059B1A4202D140233B6101E040233B6029
:101A10003C613C60069B1A4202D140233B6101E0DD
:101A200040233B603C613C60079B1A4202D140234B
:101A30003B6101E040233B603C613C60089B1A42F3
:101A400002D140233B6101E040233B603C613C60AC
:101A5000099B1A42ACD040233B60ABE73E603C6040
:101A60003E603E610020039B09E040223A611B0278
:101A700002460A433C613C6008300F2A4BD20C9A64
:101A8000134202D140223A6101E040223A603C61B7
:101A90003C600B9A134202D140223A6101E040229D
:101AA0003A603C613C600A9A134202D140223A619A
:101AB00001E040223A603C613C60059A134202D149
:101AC00040223A6101E040223A603C613C60069A63
:101AD000134202D140223A6101E040223A603C6167
:101AE0003C60079A134202D140223A6101E0402251
:101AF0003A603C613C60089A134202D140223A614C
:101B000001E040223A603C613C60099A1342ACD04B
:101B100040223A60ABE73E600198022863D001287A
:101B200000D1BEE0002800D018E13C603E603E617C
:101B30000A98801C00220AE040233B610002134601
:101B40000B433C613C6008320F2B00D305E10C9B3A
:101B5000184202D140233B6101E040233B603C61DD
:101B60003C600B9B184202D140233B6101E04023C3
:101B70003B603C613C600A9B184202D140233B61C0
:101B800001E040233B603C613C60059B184202D170
:101B900040233B6101E040233B603C613C60069B8D
:101BA000184202D140233B6101E040233B603C618D
:101BB0003C60079B184202D140233B6101E0402377
:101BC0003B603C613C60089B184202D140233B6172
:101BD00001E040233B603C613C60099B1842ABD074
:101BE00040233B60AAE73C603E603E610A98283093
:101BF00000220AE040233B61000213460B433C6194
:101C00003C6008320F2B00D3A7E00C9B184202D196
:101C100040233B6101E040233B603C613C600B9B07
:101C2000184202D140233B6101E040233B603C610C
:101C30003C600A9B184202D140233B6101E04023F3
:101C40003B603C613C60059B184202D140233B61F4
:101C500001E040233B603C613C60069B184202D19E
:101C600040233B6101E040233B603C613C60079BBB
:101C7000184202D140233B6101E040233B603C61BC
:101C80003C60089B184202D140233B6101E04023A5
:101C90003B603C613C60099B1842ABD040233B60F9
:101CA000AAE73C603E603E6100200A9A09E04023BA
:101CB0003B61120203460B433C613C6008300F2B32
:101CC0004BD20C9B1A4202D140233B6101E04023DE
:101CD0003B603C613C600B9B1A4202D140233B615C
:101CE00001E040233B603C613C600A9B1A4202D108
:101CF00040233B6101E040233B603C613C60059B2D
:101D00001A4202D140233B6101E040233B603C6129
:101D10003C60069B1A4202D140233B6101E0402314
:101D20003B603C613C60079B1A4202D140233B610F
:101D300001E040233B603C613C60089B1A4202D1B9
:101D400040233B6101E040233B603C613C60099BD8
:101D50001A42ACD040233B60ABE73E600DB0F0BD13
:101D6000B0B50A78032313400B4A84580B4D254025
:101D7000EB18A92424061B198350072212064B686E
:101D800013401124240205599543EA180251001901
:101D900049780161B0BDC04608080000FCFFFF00A3
:101DA000811E091F00BFFCD270470000B0B5536808
:101DB00094681C4393892343146955691C43D38950
:101DC0002B431B0123430C01041909256D026351A8
:101DD000137852781A43BF231A40890040180349E8
:101DE00044589C43A2184250B0BDC0461011000098
:101DF000B0B51122120283580C4C1C400B894D883F
:101E00001D438B792B430A4D1D4063198350CB79B9
:101E10008C881C43097821435D239B00194080185E
:101E200042689A4351184160B0BDC04680CCFFFF64
:101E30007F33000010B50122120383180C785C6018
:101E40004978815010BD0000F0B585B00122140220
:101E5000344B19680494A1431960950362490E68D4
:101E60002E4208D10E682E4205D10E682E4202D1B4
:101E70000E682E42F3D0457E15409E699643751933
:101E80009D612025455D03263540DF69B7437D19F7
:101E9000DD61254D2E6805272F60476A3C681C626E
:101EA0007C685C62072434402C60C4697F252D0265
:101EB000DE69AE436406640C3419DC6150C8056801
:101EC0000095476885680195C568029503929A69EF
:101ED000164D15402207120B3403A4B2A2183A4340
:101EE000009C2407240D1443019A1443029A1443BE
:101EF000007C20430E4A0240501998611868049AE9
:101F000010431860039840020A68024208D10A6828
:101F1000024205D10A68024202D10A680242F3D0A5
:101F200005B0F0BD08010B40001340408D00F0FFEC
:101F300072FF0F00F0B5184B1D46083D2E680124B6
:101F4000A6432E600326360330401F68B743381877
:101F500018601868FF26B043C9B240181860286896
:101F6000204328601868002A11D021070843186010
:101F700020021D490A68024208D10A68024205D1BE
:101F80000A68024202D10A680242F3D0F0BD21077A
:101F900088431860F0BDC04610010B4010B51149D0
:101FA000886001225305104804681C4208D1046867
:101FB0001C4205D104681C4202D104681C42F3D0C3
:101FC00012040B6813430B600168C90608D401684A
:101FD000C90605D40168C90602D40168C906F3D54B
:101FE00010BDC04604010B4004020B40B0B51122E5
:101FF000120283580124A34383508B780C881C431E
:102000008B882343094C1C408358094D1D402B19D4
:1020100083508B79CC791C43097A21437E23194064
:10202000801842689A4351184160B0BD186700009B
:10203000E798FDFF10B50122120383180C789C600D
:102040004978815010BD0000F0B593B0E0480024FD
:102050000460E7480460E248046001200290000246
:102060000490D24F02F02EFF03F046F800F0BAF9C8
:10207000DF49086000F0A6F9D549086000F0AAF928
:10208000D7490860C2480068049908420AD101256E
:10209000284602F0D3FEBE4800680499084201D1E8
:1020A000A5432C46012C099413D0002C3AD10024CE
:1020B000B8480460C64800683028039006D300245E
:1020C0000028204600D42F20C14908600298074606
:1020D0000FE00124AF480460C1480068012800DA1D
:1020E0000C300C21FEF78CF8481CAB490860002727
:1020F000029800940026082504463146A74A2B463C
:1021000002F014FB0097482738463146A44A2B4674
:1021100002F00CFB009438462946A24A2B4602F0F6
:1021200005FBA24F9C4C22680121082008900090DA
:102130000B910191702000260223314602F098FA9B
:102140003F20039C001BC1B27F2230460B4600F0AB
:10215000D5FE2046FEF7ABFD3246934BFEF7B2FDAF
:102160003D46374632462B46FEF726FB0690059144
:102170002046FEF7EFFF00F0BDF9079086480068A3
:1021800041000F9100010A90894911910888FEF7DA
:1021900096FD00242246874BFEF70EFB864A874BAE
:1021A000FEF790FD22462B46FEF78CFDFEF728FD3C
:1021B0000721129103F050F80E97F749C851CE1934
:1021C000109611980F9FC05BFEF779FD2246794B60
:1021D000FEF7F2FA784A794BFEF774FD22462B4659
:1021E000FEF770FDFEF70CFD129D294603F034F852
:1021F00070601198C619F05BFEF761FD22466D4BC9
:10220000FEF7DAFA6C4A6D4BFEF75CFD2246674B2F
:10221000FEF758FDFEF7F4FC294603F01DF810996F
:102220008860F619F05BFEF74AFD2246614BFEF727
:10223000C3FA614A614BFEF745FD22465B4BFEF750
:1022400041FDFEF7DDFC294603F006F8109DE8602D
:10225000F619F05BFEF733FD2246564BFEF7ACFA5B
:10226000554A564BFEF72EFD2246504BFEF72AFDEF
:10227000FEF7C6FC129902F0EFFF2861F0190D90ED
:10228000C05BFEF71CFD22464A4BFEF795FA4A4A10
:102290004A4BFEF717FD2246444BFEF713FDFEF7AF
:1022A000AFFC129D294602F0D7FF109E706139469F
:1022B0000D98C719785AFEF702FD0C9422463D4B43
:1022C000FEF77AFA3C4A3D4BFEF7FCFC2246374BC0
:1022D000FEF7F8FCFEF794FC294602F0BDFFB06162
:1022E00034460F997818314D405AFEF7E8FC0C9EA1
:1022F0003246304BFEF760FA2F4A304BFEF7E2FCD5
:1023000032462B46FEF7DEFCFEF77AFC129902F00D
:10231000A3FF1199E0610A9809180E9A20320B98D0
:1023200080021746824200D02FE706980599FEF7F3
:1023300059F8064602F0BAFE1290202700253846CA
:10234000294632460B9E334601F0C4FF00963046C4
:10235000089C21461A4A234602F0E8F900940196A7
:1023600004233846114F2146129A02F081F907984A
:1023700002F056FE0A2002F061FD5648006801286E
:10238000099C00D06EE653480560284613B0F0BDA6
:1023900080130A40C4142020000020202D0020209B
:1023A000040020202700202000001C40000059408D
:1023B000B000202000FEAF406666666666660A4092
:1023C000100020204949086800220A607047C04672
:1023D000B41420204649086800220A607047C046AD
:1023E000B81420203D49086800220A607047C046A2
:1023F000B014202035480068012865D101203449F7
:102400000A6852031AD442030B68DB041DD409681E
:10241000114259D002033048036830480168134222
:1024200034D1491E01602E48006803284CD8C046AC
:1024300078440079400087442737393B8204254B94
:1024400018600869104308617047234803682348EF
:10245000016813420CD1491C01602148006803281F
:1024600032D8C04678440079400087441B2527298C
:10247000491E01601A480068032825D8784400796D
:102480004000874401111315184812E0491C0160EF
:1024900013480068032817D878440079400087441F
:1024A000010B0D0F11480CE0114802E00E4800E04E
:1024B0000C480168491E06E00D4802E00A4800E0A9
:1024C00008480168491C01607047C046301140400F
:1024D00038100A409C1D202080130A40B014202090
:1024E000C4142020C0142020BC142020B4142020A8
:1024F000B8142020F0B585B0044604A8002101805E
:1025000003A8018002AA118000887F283DD82148B5
:1025100006683046FEF71EFE214603F067FB019079
:102520003046FEF7C4FB06460F461B4D06E00398F7
:10253000401C03A908800888802826D20398C01C64
:1025400002A9088003A8008880002858FEF70AFE28
:10255000214603F013FC0121C9078843FEF7D6FC8E
:1025600032463B4603F0ACFA0028E0D102A80088CE
:1025700080002858FEF7F6FD0146019803F0ABFAFB
:102580000028D4D1039804A9088004A8008805B0C5
:10259000F0BDC046000020209C192020F0B584B07A
:1025A000014CF834802501E0C81420200026267054
:1025B0002046083806702046103806702046183825
:1025C00006702046203806702046283806702046BF
:1025D000303806702046383806702046403806707D
:1025E0002046483806702046503806702046583835
:1025F000067020466038067020466838067020460F
:10260000703806702046783806702046803806708C
:102610002046883806702046903806702046983844
:1026200006702046A03806702046A838067020465E
:10263000B03806702046B83806702046C03806709C
:102640002046C83806702046D03806702046D83854
:1026500006702046E03806702046E83806702046AE
:10266000F03806702046F838067001221302E4188C
:10267000203D9BD1014DF935802401E0C814202074
:102680002E702846083806702846103806702846EE
:1026900018380670284620380670284628380670F4
:1026A00028463038067028463838067028464038A4
:1026B0000670284648380670284650380670284666
:1026C0005838067028466038067028466838067004
:1026D00028467038067028467838067028468038B4
:1026E00006702846883806702846903806702846B6
:1026F000983806702846A03806702846A838067014
:102700002846B03806702846B83806702846C038C3
:1027100006702846C83806702846D0380670284605
:10272000D83806702846E03806702846E838067023
:102730002846F0380670E818F83D2E70203C054613
:102740009ED1024DFA35802402E0C046C8142020F4
:102750002E7028460838067028461038067028461D
:102760001838067028462038067028462838067023
:1027700028463038067028463838067028464038D3
:102780000670284648380670284650380670284695
:102790005838067028466038067028466838067033
:1027A00028467038067028467838067028468038E3
:1027B00006702846883806702846903806702846E5
:1027C000983806702846A03806702846A838067043
:1027D0002846B03806702846B83806702846C038F3
:1027E00006702846C83806702846D0380670284635
:1027F000D83806702846E03806702846E838067053
:102800002846F0380670E818F83D2E70203C054642
:102810009ED1FC4DFB3580242E702846083806706A
:102820002846103806702846183806702846203882
:102830000670284628380670284630380670284624
:1028400038380670284640380670284648380670E2
:102850002846503806702846583806702846603892
:102860000670284668380670284670380670284674
:1028700078380670284680380670284688380670F2
:102880002846903806702846983806702846A038A2
:1028900006702846A83806702846B03806702846C4
:1028A000B83806702846C03806702846C838067002
:1028B0002846D03806702846D83806702846E038B2
:1028C00006702846E83806702846F0380670E81882
:1028D000F83D2E70203C05469ED1CA4DFC35802423
:1028E0002E7028460838067028461038067028468C
:1028F0001838067028462038067028462838067092
:102900002846303806702846383806702846403841
:102910000670284648380670284650380670284603
:1029200058380670284660380670284668380670A1
:102930002846703806702846783806702846803851
:102940000670284688380670284690380670284653
:10295000983806702846A03806702846A8380670B1
:102960002846B03806702846B83806702846C03861
:1029700006702846C83806702846D03806702846A3
:10298000D83806702846E03806702846E8380670C1
:102990002846F0380670E818F83D2E70203C0546B1
:1029A0009ED1F14DFD3580242E70284608380670E2
:1029B00028461038067028461838067028462038F1
:1029C0000670284628380670284630380670284693
:1029D0003838067028464038067028464838067051
:1029E0002846503806702846583806702846603801
:1029F00006702846683806702846703806702846E3
:102A00007838067028468038067028468838067060
:102A10002846903806702846983806702846A03810
:102A200006702846A83806702846B0380670284632
:102A3000B83806702846C03806702846C838067070
:102A40002846D03806702846D83806702846E03820
:102A500006702846E83806702846F0380670E818F0
:102A6000F83D2E70203C05469ED1FE4DFE3580245B
:102A70002E702846083806702846103806702846FA
:102A80001838067028462038067028462838067000
:102A900028463038067028463838067028464038B0
:102AA0000670284648380670284650380670284672
:102AB0005838067028466038067028466838067010
:102AC00028467038067028467838067028468038C0
:102AD00006702846883806702846903806702846C2
:102AE000983806702846A03806702846A838067020
:102AF0002846B03806702846B83806702846C038D0
:102B000006702846C83806702846D0380670284611
:102B1000D83806702846E03806702846E83806702F
:102B20002846F0380670E818F83D2E70203C05461F
:102B30009ED1CC4DFF3580242E7028460838067073
:102B4000284610380670284618380670284620385F
:102B50000670284628380670284630380670284601
:102B600038380670284640380670284648380670BF
:102B7000284650380670284658380670284660386F
:102B80000670284668380670284670380670284651
:102B900078380670284680380670284688380670CF
:102BA0002846903806702846983806702846A0387F
:102BB00006702846A83806702846B03806702846A1
:102BC000B83806702846C03806702846C8380670DF
:102BD0002846D03806702846D83806702846E0388F
:102BE00006702846E83806702846F0380670E8185F
:102BF000F83D2E70203C05469ED191055B4B5C4C08
:102C0000029106E0C8142020039E761C082E00D1F5
:102C1000A8E0196104251D6103963046B030206399
:102C20002068C00608D52068C00605D52068C00603
:102C300002D52068C006F3D41D60196019611D61BA
:102C4000002626632068C00608D52068C00605D582
:102C50002068C00602D52068C006F3D41D60196044
:102C600019611D611020009020632068C00608D5FE
:102C70002068C00605D52068C00602D52068C006B9
:102C8000F3D41D601960019504E01D601960361DC4
:102C9000802EB9D0F000CE4F3F182A461D460B4675
:102CA00003997F5C2B6029462A6127632768FF060A
:102CB00008D52768FF0605D52768FF0602D52768CF
:102CC000FF06F3D4019A0A60029B2B600827074392
:102CD000BF49CF1903997F5C2B6029462A6127637E
:102CE0002768FF0608D52768FF0605D52768FF0671
:102CF00002D52768FF06F3D4019A0A60029B2B6075
:102D0000074600990F43B249CF1903997F5C2B60A6
:102D10002B4615461A6127632768FF0608D52768E2
:102D2000FF0605D52768FF0602D52768FF06F3D4FE
:102D30001D60029A1A6018273843A54908181146E1
:102D4000039A805C19601D6120632068C0069CD5D1
:102D50002068C00699D52068C00696D52068C006B0
:102D6000F3D492E704B0F0BDC814202090120A40BA
:102D700010B14640F0B588B01C4613460A4607908D
:102D80000021C843069294420190009000D1009126
:102D90000698241A0125012C00DB00950798834230
:102DA00000D101910798181A012800DB0195C2177C
:102DB0005040871AE0174440201A04908742039736
:102DC00000D8049F0D9802900A460E4603E0761C38
:102DD000B0B2874231D305920720069A10400125F0
:102DE00085400798C0B2C000794B1C181006C20E6F
:102DF000A05C029B002B01D0284300E0A843A05414
:102E000004980D18BD4203DD009806990918069133
:102E1000059903980C18BC4204DCE91B08DDE21B91
:102E2000D5DC08E00798019A80180790E91BF6DCCA
:102E30002946E21BCBDC2246C9E708B0F0BDC046FC
:102E400010B507240C400123A340C000604C20189B
:102E5000C908445C002A02D01C43445410BD9C4362
:102E6000445410BDC8142020F0B581B0B320C44331
:102E70002046FEF76FF90546FEF748F8194A1A4B47
:102E8000FDF720FF00263246184BFDF795FCFDF7B5
:102E9000A9FAFEF73BF802F029FE3246144BFDF783
:102EA00011FFFDF79FFA134902F0A0FE8521CE0520
:102EB000314602F09BFEFEF703F9074628460E490D
:102EC000FEF74EF8314602F091FEFEF7F9F8F9B23E
:102ED000C0B20122FFF7B4FF641CB42CC8D101B00A
:102EE000F0BDC0461F85EB51B81E0940008066400A
:102EF00000002EC00000C0C100006040F0B585B0E9
:102F00000446161AF01732464240101A01915D1A13
:102F1000EA1729465140891A884200D80846049089
:102F2000FEF718F907463046FEF714F93946FEF762
:102F300017F803902846FEF70DF93946FEF710F80A
:102F400002902046FDF7BBFE00261D4C324623466C
:102F5000FDF702FCFDF746FA07460198FDF7AFFEC4
:102F600032462346FDF7F8FBFDF73CFA04463546AA
:102F70000EE00398394602F039FE074602982146D2
:102F800002F034FE04466D1CEEB20498B04215D334
:102F9000F007EED12046FEF793F80190072101409B
:102FA00001268E403846FEF78BF8C0000849081805
:102FB0000199C908425C32434254DAE705B0F0BDDA
:102FC0000000E03FB0B502480346F833802401E03A
:102FD000C8142020002119701A46083A11701A46A8
:102FE000103A11701A46183A11701A46203A1170A8
:102FF0001A46283A11701A46303A11701A46383A71
:1030000011701A46403A11701A46483A11701A4621
:10301000503A11701A46583A11701A46603A1170B7
:103020001A46683A11701A46703A11701A46783A80
:1030300011701A46803A11701A46883A11701A4671
:10304000903A11701A46983A11701A46A03A1170C7
:103050001A46A83A11701A46B03A11701A46B83A90
:1030600011701A46C03A11701A46C83A11701A46C1
:10307000D03A11701A46D83A11701A46E03A1170D7
:103080001A46E83A11701A46F03A11701A46F83AA0
:103090001170012212029B18203C9BD10446F93486
:1030A000802321702546083D29702546103D297052
:1030B0002546183D29702546203D29702546283D86
:1030C00029702546303D29702546383D2970254612
:1030D000403D29702546483D29702546503D2970C0
:1030E0002546583D29702546603D29702546683D96
:1030F00029702546703D29702546783D2970254662
:10310000803D29702546883D29702546903D2970CF
:103110002546983D29702546A03D29702546A83DA5
:1031200029702546B03D29702546B83D29702546B1
:10313000C03D29702546C83D29702546D03D2970DF
:103140002546D83D29702546E03D29702546E83DB5
:1031500029702546F03D2970A518F83C2170203BC8
:103160002C469ED10446FA34802321702546083D22
:1031700029702546103D29702546183D29702546A1
:10318000203D29702546283D29702546303D29706F
:103190002546383D29702546403D29702546483D45
:1031A00029702546503D29702546583D29702546F1
:1031B000603D29702546683D29702546703D29707F
:1031C0002546783D29702546803D29702546883D55
:1031D00029702546903D29702546983D2970254641
:1031E000A03D29702546A83D29702546B03D29708F
:1031F0002546B83D29702546C03D29702546C83D65
:1032000029702546D03D29702546D83D2970254690
:10321000E03D29702546E83D29702546F03D29709E
:10322000A518F83C2170203B2C469ED10446FB3467
:10323000802321702546083D29702546103D2970C0
:103240002546183D29702546203D29702546283DF4
:1032500029702546303D29702546383D2970254680
:10326000403D29702546483D29702546503D29702E
:103270002546583D29702546603D29702546683D04
:1032800029702546703D29702546783D29702546D0
:10329000803D29702546883D29702546903D29703E
:1032A0002546983D29702546A03D29702546A83D14
:1032B00029702546B03D29702546B83D2970254620
:1032C000C03D29702546C83D29702546D03D29704E
:1032D0002546D83D29702546E03D29702546E83D24
:1032E00029702546F03D2970A518F83C2170203B37
:1032F0002C469ED10446FC34802321702546083D8F
:1033000029702546103D29702546183D297025460F
:10331000203D29702546283D29702546303D2970DD
:103320002546383D29702546403D29702546483DB3
:1033300029702546503D29702546583D297025465F
:10334000603D29702546683D29702546703D2970ED
:103350002546783D29702546803D29702546883DC3
:1033600029702546903D29702546983D29702546AF
:10337000A03D29702546A83D29702546B03D2970FD
:103380002546B83D29702546C03D29702546C83DD3
:1033900029702546D03D29702546D83D29702546FF
:1033A000E03D29702546E83D29702546F03D29700D
:1033B000A518F83C2170203B2C469ED10446FD34D4
:1033C000802321702546083D29702546103D29702F
:1033D0002546183D29702546203D29702546283D63
:1033E00029702546303D29702546383D29702546EF
:1033F000403D29702546483D29702546503D29709D
:103400002546583D29702546603D29702546683D72
:1034100029702546703D29702546783D297025463E
:10342000803D29702546883D29702546903D2970AC
:103430002546983D29702546A03D29702546A83D82
:1034400029702546B03D29702546B83D297025468E
:10345000C03D29702546C83D29702546D03D2970BC
:103460002546D83D29702546E03D29702546E83D92
:1034700029702546F03D2970A518F83C2170203BA5
:103480002C469ED10446FE34802321702546083DFB
:1034900029702546103D29702546183D297025467E
:1034A000203D29702546283D29702546303D29704C
:1034B0002546383D29702546403D29702546483D22
:1034C00029702546503D29702546583D29702546CE
:1034D000603D29702546683D29702546703D29705C
:1034E0002546783D29702546803D29702546883D32
:1034F00029702546903D29702546983D297025461E
:10350000A03D29702546A83D29702546B03D29706B
:103510002546B83D29702546C03D29702546C83D41
:1035200029702546D03D29702546D83D297025466D
:10353000E03D29702546E83D29702546F03D29707B
:10354000A518F83C2170203B2C469ED1FF308023EB
:1035500001700446083C21700446103C217004466A
:10356000183C21700446203C21700446283C217000
:103570000446303C21700446383C21700446403CEF
:1035800021700446483C21700446503C217004469A
:10359000583C21700446603C21700446683C217010
:1035A0000446703C21700446783C21700446803CFF
:1035B00021700446883C21700446903C21700446EA
:1035C000983C21700446A03C21700446A83C217020
:1035D0000446B03C21700446B83C21700446C03C0F
:1035E00021700446C83C21700446D03C217004463A
:1035F000D83C21700446E03C21700446E83C217030
:103600000446F03C21708418F8380170203B2046B5
:103610009ED1B0BDB0B502480346FA33802401E024
:10362000C8142020002119701A46083A11701A4651
:10363000103A11701A46183A11701A46203A117051
:103640001A46283A11701A46303A11701A46383A1A
:1036500011701A46403A11701A46483A11701A46CB
:10366000503A11701A46583A11701A46603A117061
:103670001A46683A11701A46703A11701A46783A2A
:1036800011701A46803A11701A46883A11701A461B
:10369000903A11701A46983A11701A46A03A117071
:1036A0001A46A83A11701A46B03A11701A46B83A3A
:1036B00011701A46C03A11701A46C83A11701A466B
:1036C000D03A11701A46D83A11701A46E03A117081
:1036D0001A46E83A11701A46F03A11701A46F83A4A
:1036E0001170012212029B18203C9BD10446FB342E
:1036F000802321702546083D29702546103D2970FC
:103700002546183D29702546203D29702546283D2F
:1037100029702546303D29702546383D29702546BB
:10372000403D29702546483D29702546503D297069
:103730002546583D29702546603D29702546683D3F
:1037400029702546703D29702546783D297025460B
:10375000803D29702546883D29702546903D297079
:103760002546983D29702546A03D29702546A83D4F
:1037700029702546B03D29702546B83D297025465B
:10378000C03D29702546C83D29702546D03D297089
:103790002546D83D29702546E03D29702546E83D5F
:1037A00029702546F03D2970A518F83C2170203B72
:1037B0002C469ED10446FC34802321702546083DCA
:1037C00029702546103D29702546183D297025464B
:1037D000203D29702546283D29702546303D297019
:1037E0002546383D29702546403D29702546483DEF
:1037F00029702546503D29702546583D297025469B
:10380000603D29702546683D29702546703D297028
:103810002546783D29702546803D29702546883DFE
:1038200029702546903D29702546983D29702546EA
:10383000A03D29702546A83D29702546B03D297038
:103840002546B83D29702546C03D29702546C83D0E
:1038500029702546D03D29702546D83D297025463A
:10386000E03D29702546E83D29702546F03D297048
:10387000A518F83C2170203B2C469ED10446FD340F
:10388000802321702546083D29702546103D29706A
:103890002546183D29702546203D29702546283D9E
:1038A00029702546303D29702546383D297025462A
:1038B000403D29702546483D29702546503D2970D8
:1038C0002546583D29702546603D29702546683DAE
:1038D00029702546703D29702546783D297025467A
:1038E000803D29702546883D29702546903D2970E8
:1038F0002546983D29702546A03D29702546A83DBE
:1039000029702546B03D29702546B83D29702546C9
:10391000C03D29702546C83D29702546D03D2970F7
:103920002546D83D29702546E03D29702546E83DCD
:1039300029702546F03D2970A518F83C2170203BE0
:103940002C469ED10446FE34802321702546083D36
:1039500029702546103D29702546183D29702546B9
:10396000203D29702546283D29702546303D297087
:103970002546383D29702546403D29702546483D5D
:1039800029702546503D29702546583D2970254609
:10399000603D29702546683D29702546703D297097
:1039A0002546783D29702546803D29702546883D6D
:1039B00029702546903D29702546983D2970254659
:1039C000A03D29702546A83D29702546B03D2970A7
:1039D0002546B83D29702546C03D29702546C83D7D
:1039E00029702546D03D29702546D83D29702546A9
:1039F000E03D29702546E83D29702546F03D2970B7
:103A0000A518F83C2170203B2C469ED1FF30802326
:103A100001700446083C21700446103C21700446A5
:103A2000183C21700446203C21700446283C21703B
:103A30000446303C21700446383C21700446403C2A
:103A400021700446483C21700446503C21700446D5
:103A5000583C21700446603C21700446683C21704B
:103A60000446703C21700446783C21700446803C3A
:103A700021700446883C21700446903C2170044625
:103A8000983C21700446A03C21700446A83C21705B
:103A90000446B03C21700446B83C21700446C03C4A
:103AA00021700446C83C21700446D03C2170044675
:103AB000D83C21700446E03C21700446E83C21706B
:103AC0000446F03C21708418F8380170203B2046F1
:103AD0009ED1B0BDF0B581B001246605074D2E61C1
:103AE000C820009001F0AAF92E60A6052E610427D7
:103AF0002F61FE4CAE20206302E0C04690120A40C7
:103B00002068C00608D52068C00605D52068C00614
:103B100002D52068C006F3D42F602E602E612F617D
:103B2000002222632068C00608D52068C00605D59B
:103B30002068C00602D52068C006F3D42F602E602E
:103B40002E612F61102020632068C00608D52068F0
:103B5000C00605D52068C00602D52068C006F3D48B
:103B60002F602E602E612F61402121632068C006E6
:103B700008D52068C00605D52068C00602D5206893
:103B8000C006F3D42F602E602E612F618120206348
:103B90002068C00608D52068C00605D52068C00684
:103BA00002D52068C006F3D42F602E602E612F61ED
:103BB000CF2020632068C00608D52068C00605D540
:103BC0002068C00602D52068C006F3D42F602E609E
:103BD0002E612F61A12020632068C00608D52068CF
:103BE000C00605D52068C00602D52068C006F3D4FB
:103BF0002F602E602E612F61009820632068C00620
:103C000008D52068C00605D52068C00602D5206802
:103C1000C006F3D42F602E602E612F61A620206392
:103C20002368DB0608D52368DB0605D52368DB0699
:103C300002D52368DB06F3D42F602E602E612F613E
:103C4000A82323632368DB0608D52368DB0605D594
:103C50002368DB0602D52368DB06F3D42F602E60D1
:103C60002E612F613F2323632368DB0608D5236879
:103C7000DB0605D52368DB0602D52368DB06F3D413
:103C80002F602E602E612F61D32323632368DB0610
:103C900008D52368DB0605D52368DB0602D5236833
:103CA000DB06F3D42F602E602E612F612263226821
:103CB000D20608D52268D20605D52268D20602D5DA
:103CC0002268D206F3D42F602E602E612F61D52298
:103CD00022632268D20608D52268D20605D522685A
:103CE000D20602D52268D206F3D42F602E602E6150
:103CF0002F61802222632268D20608D52268D2066C
:103D000005D52268D20602D52268D206F3D42F60E8
:103D10002E602E612F61D92222632268D20608D537
:103D20002268D20605D52268D20602D52268D206BC
:103D3000F3D42F602E602E612F61F122226322685E
:103D4000D20608D52268D20605D52268D20602D549
:103D50002268D206F3D42F602E602E612F61DA2202
:103D600022632268D20608D52268D20605D52268C9
:103D7000D20602D52268D206F3D42F602E602E61BF
:103D80002F61122222632268D20608D52268D20649
:103D900005D52268D20602D52268D206F3D42F6058
:103DA0002E602E612F61DB2222632268D20608D5A5
:103DB0002268D20605D52268D20602D52268D2062C
:103DC000F3D42F602E602E612F6121632168C90614
:103DD00008D52168C90605D52168C90602D521681C
:103DE000C906F3D42F602E602E612F61202121633C
:103DF0002168C90608D52168C90605D52168C90604
:103E000002D52168C906F3D42F602E602E612F6180
:103E1000022121632168C90608D52168C90605D594
:103E20002168C90602D52168C906F3D42F602E6027
:103E30002E612F618D2121632168C90608D5216873
:103E4000C90605D52168C90602D52168C906F3D47B
:103E50002F602E602E612F61142121632168C90615
:103E600008D52168C90605D52168C90602D521688B
:103E7000C906F3D42F602E602E612F61A421216327
:103E80002168C90608D52168C90605D52168C90673
:103E900002D52168C906F3D42F602E602E612F61F0
:103EA00020632068C00608D52068C00605D52068B4
:103EB000C00602D52068C006F3D42F602E60FEF73E
:103EC0006DFB2E612F61AF2020632068C00608D5EE
:103ED0002068C00605D52068C00602D52068C00647
:103EE000F3D42F602E6001B0F0BDC04610B1464043
:103EF000F0B584B00120800500265A4D5A4B02903F
:103F000004E0039E761C082E00D1A8E0286104225C
:103F10002A610396B0361E631E68F60608D51E6831
:103F2000F60605D51E68F60602D51E68F606F3D419
:103F30002A60286028612A6100261E631F68FF0628
:103F400008D51F68FF0605D51F68FF0602D51F6844
:103F5000FF06F3D42A602860286114462A611020E5
:103F6000009018631F68FF0608D51F68FF0605D577
:103F70001F68FF0602D51F68FF06F3D422462C6097
:103F800002982860019404E02A602860361D802E83
:103F9000B7D0F700CE4CE419014610460A46039903
:103FA000645C2A60294628611C631C68E40608D505
:103FB0001C68E40605D51C68E40602D51C68E40606
:103FC000F3D401980860029A2A6008243C43C0494F
:103FD0000C190399645C2A60294628611C631C68DB
:103FE000E40608D51C68E40605D51C68E40602D57D
:103FF0001C68E406F3D401980860029A2A603C46E3
:1040000000990C43B2490C190399645C2A6002467A
:1040100028611C631C68E40608D51C68E40605D505
:104020001C68E40602D51C68E406F3D42A600298F2
:10403000286018242743A649CC190399645C28609A
:104040002A611C631C68E4069ED51C68E4069BD5A7
:104050001C68E40698D51C68E406F3D494E704B021
:10406000F0BDC04690120A4010B14640F0B58BB08A
:104070000A9103900620082B04460AD05C07D90851
:10408000002C00D0491C5C084C43E4B2002C00D149
:1040900013E1109F203AD1B20091484388490A1891
:1040A000580801900025039E0293089709E00646F0
:1040B000079C049A069D641E521C6D1C002C00D1A6
:1040C000FBE0082B104615D0182B09D0102B0CD074
:1040D0000C2B00D0F1E00C20009948437B4907E00D
:1040E000242000994843774902E00098000176496E
:1040F00008184019099006950492079407230A9A14
:10410000104618400125294681400596F0B2C000AE
:104110006F4C2018D2B2D408065D32460A438E4353
:10412000002F114600D03146002F00D01646002245
:10413000099FBA560992D20700D0314601550A9913
:10414000491CCAB219402F468F40D408065D31463B
:104150003943BE43089F002F0A4600D03246002F45
:1041600000D00E460999890700D5324602550A99B2
:10417000891CCAB219402F468F40D408065D3146CB
:104180003943BE43089F002F0A4600D03246002F15
:1041900000D00E460999490700D5324602550A99C2
:1041A000C91CCAB219402F468F40D408065D31465B
:1041B0003943BE43089F002F0A4600D03246002FE5
:1041C00000D00E460999090700D5324602550A99D2
:1041D000091DCAB219402F468F40D408065D3146EA
:1041E0003943BE43089F002F0A4600D03246002FB5
:1041F00000D00E460999C90600D5324602550A99E3
:10420000491DCAB219402F468F40D408065D314679
:104210003943BE43089F002F0A4600D03246002F84
:1042200000D00E460999890600D5324602550A99F2
:10423000891DCAB219402F468F40D408065D314609
:104240003943BE43089F002F0A4600D03246002F54
:1042500000D00E460999490600D5324602550A9902
:10426000C91D0B409D40C9B2CC08025D1146A9434F
:104270001543002F0A4600D02A46002F029B059EB8
:1042800000D00D460999002900D42A460255701C19
:10429000082B00D10BE7C1B2039A891A019A914207
:1042A000079C02D10A9A08320A92049A019DA942F7
:1042B000039E00D1FEE60646FCE60BB0F0BDC0460C
:1042C00038600000C46C0000D4660000606200002A
:1042D000C8142020F0B59FB016460D460690104633
:1042E000FCF7EEFE0624059444430A21029100F0F7
:1042F00091FF3C2104914843201ADA4908180190A3
:10430000D949304601F0E2FCFCF7DAFE03900720C1
:1043100029462B46034001273A469A401792D2433A
:104320001692EA1D1D9202403B4693401593DA43D4
:104330001492AB1D1C9303403C469C401394E343F2
:1043400012936C1D1B9404403D46A5401195EC430F
:1043500010940C1D254605403E463A46AE400F9649
:10436000F5430E95CD1C2E460640B7400D97FE43F3
:104370000C968E1C0B46374607401146B9400B91F0
:10438000C9430A915F1C3840079282400992D0438A
:104390000890D8081E901D98C0B2C1081C98C0B2E1
:1043A000C0081D901B98C0B2C0081C90E0B2C008A5
:1043B0001B90E8B2C0081A90F0B20E46C0081990DF
:1043C000F8B2019FC00818906021069806E0149A80
:1043D00014409C55491C401C662957D0C2B2D200DB
:1043E000A24B9B181E9A9D5C7A56D40702D0179C4C
:1043F000254301E0169C25401E9C1D55189C1C5D04
:10440000950702D5099D2C4301E0089D2C40189D7D
:104410005C55199C1C5D550702D50B9D2C4301E092
:104420000A9D2C40199D5C551A9C1C5D150702D5F0
:104430000D9D2C4301E00C9D2C401A9D5C551B9C4E
:104440001C5DD50602D50F9D2C4301E00E9D2C402E
:104450001B9D5C551C9C1C5D950602D5119D2C4333
:1044600001E0109D2C401C9D5C551D9C1C5D55065B
:1044700002D5139D2C4301E0129D2C401D9D5C55DF
:104480009C5D002AA3D5159A1443A2E7069908312A
:10449000542206E0149804409C55521C491C5A2A88
:1044A00058D0C8B2C000714B1B181E981D5C6D48D7
:1044B0008056C40702D0179C254301E0169C254076
:1044C0001E9C1D55189C1C5D850702D5099D2C431B
:1044D00001E0089D2C40189D5C55199C1C5D45070A
:1044E00002D50B9D2C4301E00A9D2C40199D5C5583
:1044F0001A9C1C5D050702D50D9D2C4301E00C9D07
:104500002C401A9D5C551B9C1C5DC50602D50F9D59
:104510002C4301E00E9D2C401B9D5C551C9C1C5D9A
:10452000850602D5119D2C4301E0109D2C401C9D59
:104530005C551D9C1C5D450602D5139D2C4301E076
:10454000129D2C401D9D5C559C5D0028A2D51598A0
:104550000443A1E764210398FBF752FE03910698F8
:10456000103006900025059C029A07E000200122E9
:104570000799C9070790059C254671D003981146F5
:1045800000F048FE44430A2100F044FE04994843E9
:10459000201A3449081806994919602206E0149D2A
:1045A0002C409C55521C491C662ADFD03746CBB2A2
:1045B000DB002E4CE3181E9C1C5D8556EE0702D0D6
:1045C000179E344301E0169E34401E9E9C55189C55
:1045D0001C5DAE0702D5099E344301E0089E3440BD
:1045E000189E9C55199C1C5D6E0702D50B9E34438A
:1045F00001E00A9E3440199E9C551A9C1C5D2E07B2
:1046000002D50D9E344301E00C9E34401A9E9C5509
:104610001B9C1C5DEE0602D50F9E344301E00E9EEE
:1046200034401B9E9C551C9C1C5DAE0602D5119E01
:10463000344301E0109E34401C9E9C551D9C1C5D23
:104640006E0602D5139E344301E0129E34403E466E
:104650001D9FDC559C5D002DA1D5159D2C43A0E729
:104660001FB0F0BD386000000000C842C814202010
:10467000F0B589B008910790002B52D01C46154622
:104680000E9841080690082800D1891C05910F98C2
:1046900004906042A11E01910026C0B20390224FF7
:1046A000029517E00121284600F0B4FD0A21FBF72E
:1046B00099FD0498009030220A43059870430799A9
:1046C0004018C0B20899069BFFF7D0FC761CF0B2E8
:1046D000A04226D2FF20B04303998842E2D0F043A3
:1046E00000190199891BC9B2032901D2012108E0EF
:1046F000FC2202400023012179431B1DDDB29542BB
:10470000FAD103221040029DCDD0012801D10A2008
:1047100005E0022802D07D20C00000E06420414373
:10472000C1E709B0F0BDC04610270000F0B583B066
:104730000646177838462038C0B25E281CD8082BA9
:1047400001D05D0800E0062508980190541C0295F0
:1047500001980090F0B2FAB20D461F46FFF786FCB2
:104760003B462946029D7619601C27783A46203A36
:10477000D2B25F2A0446EBD303B0F0BDF0B58BB0E4
:10478000BC4964200860BC4800260660BB48322152
:1047900005910160BA480660FEF714FC7D20C00058
:1047A000099001200A900402B64D089604960394DD
:1047B0003EE00998FCF77BFA089A00922246049F93
:1047C0003B46FCF771FE0598C0B20690FCF712FE5E
:1047D0000825009501942024002602232046314616
:1047E0003A46FFF745FF00950A9F019704232046AC
:1047F0002946099AFFF73CFF009501976E2403278D
:10480000204602963146069A3B46FFF731FF009557
:104810000A98019020462946089A3B46FFF728FF50
:104820009F4800680128039C964D079E00D11BE11C
:1048300000F0A1FBFFF75CFB286820420CD10120AF
:1048400000F01EFB2868204206D1701CC117890F9A
:10485000411803229143461A0A9C032E0796A8D8B2
:104860007E4436797600B7442D6E9C01032086493C
:1048700008608348006808900094002708262046B6
:104880003946824A3346FFF751FF009420463146AD
:104890007F4A3346FFF74AFF0094462528463946AB
:1048A0007C4A3346FFF742FF0097284631467A4A52
:1048B0003346FFF73BFF2D20C1000898FBF792FC21
:1048C000089176E70026704806606B4800680690FD
:1048D00000960825204631466C4A2B46FFF726FFF6
:1048E0000094204629466A4A2B46FFF71FFF009492
:1048F0004627384604963146664A2B46FFF716FF90
:10490000009438462946644A2B46FFF70FFF0321DF
:104910000698FBF767FC012972D0002976D1FEF7D3
:1049200079FE00941820382540261627294632465D
:104930003B46FEF71FFA00946822304639462B4664
:10494000FEF718FA35E7504804604A4804680A98A8
:104950000090002608250A9831464C4A2B46FFF75E
:10496000E5FE00960A982946494A2B46FFF7DEFEE7
:104970000A980090462738463146464A2B46FFF7AC
:10498000D5FE0A98009038462946434A2B46FFF741
:10499000CDFE0A2060430A9C4049FBF731FC099197
:1049A00007E7022038490860344800680590009401
:1049B0000026082520463146344A2B46FFF7B6FE2E
:1049C000009420462946324A2B46FFF7AFFE009658
:1049D0004627384631462F4A2B46FFF7A7FE00945C
:1049E000384629462C4A2B46FFF7A0FEFE200599A3
:1049F0000840FA2802D30598801D05900A9CD8E645
:104A0000FEF708FEFEF730FA0494D2E6FEF702FE47
:104A100000943821069118261627304632463B4628
:104A2000FEF7A8F900944025304639462A463B4611
:104A3000FEF7A0F90094284606992A463B46FEF761
:104A400099F9009468262846069D294632462B4649
:104A5000FEF790F900943046294632463B46FEF771
:104A600089F902200490A4E60D48029901600BB078
:104A7000F0BDC046B8142020B4142020BC1420205F
:104A8000C014202080130A40C41420204500202098
:104A900038002020330020203E002020E9030000C1
:104AA0009C1D2020B0B50124A0071249FDF758F93C
:104AB0001148C16F114A0A4061045118C167104979
:104AC0000A68104B13400B6000228A670E4ACA60C6
:104AD00022020B6813430B601F23DB020D689D430A
:104AE000E302EB180B60016811430160816F214301
:104AF0008167B0BD207A000088100040FEFFECFF07
:104B000008110040F8FFE0E0409C000080B505205F
:104B100040020449086004480021044AFDF746F9B0
:104B200080BDC0460CB2424000A04240287A00003E
:104B300080B5FFF7EBFF80BD1D4800210162416297
:104B40008221C1641B49016583210166C1651A493F
:104B500001601A4981220A634A634261184B8B61E2
:104B6000184B0363836443640B604B60426382634E
:104B70004265826514480221016114490160891C63
:104B8000016413480168134A0A4302600169102254
:104B90000A430261412000030F490A6A02430A6284
:104BA0000A6802430A600D48CC2101600164704725
:104BB0000880424082000400810001008880424059
:104BC000810005008100060090120A400400600088
:104BD00090130A400080000528100A4090320A40D5
:104BE00010B50D4C0D492046FDF724F90C4920461F
:104BF000FDF7FEF80B4841680B4A0A401832426044
:104C0000816812220A432D218A43826001680122B1
:104C10000A43026010BDC04600A04640407A000032
:104C2000427A000004B1464000FCFFFF70B517480F
:104C3000002404600F200002154E316881430125D5
:104C40006802081830600320C143321F13680B400C
:104C500013607168A9437160290272688A437260A7
:104C600000030A212A46FDF765F90A48FDF7ECF82A
:104C700030681021014320208143316028033168CE
:104C8000014331602046FDF789F970BD08030B40F0
:104C900004010B404C7A00000548042101604F21BB
:104CA000416000218160016805220A43026070476B
:104CB00010E000E010B5144C14492046FDF7BAF995
:104CC00013492046FDF792F90321CA0311480368EE
:104CD000934303600269104B13401A330361426926
:104CE0000A433C218A4342614168012211404368E2
:104CF0009343591841609102084B1C680C431C6097
:104D000001681143016010BD00801040747A0000FA
:104D1000767A0000009110400000FFFF28901040BC
:104D200080B500F015F8FFF707FFFFF77FFFFFF7EB
:104D3000C1FFFFF755FFFFF7B5FEFFF7F9FEFFF7DD
:104D4000ABFF2420014900220A5480BDA01D202071
:104D5000B0B50A480A4941600A4A51600A4B596095
:104D60000A4C61600A4D69600A490160116019606E
:104D7000216029601020FDF713F8B0BD00080A403B
:104D8000030000B100280A400088104000A84640F7
:104D9000000800400100002610B512480068C0B2AB
:104DA0000B281ED1C048C1690F4A13887E2B13D827
:104DB00013885C1C14800D4AD1540268D20708D0B5
:104DC0000268D20705D00268D20702D00268D20773
:104DD000F3D1C9B2816101E00020108004480121B3
:104DE000017010BD209010404A1E2020C91D2020B7
:104DF000491E20207047000080B5FFF791FF012079
:104E0000C003044908600449086004A0FBF7D4F912
:104E100080BDC04680E200E000E100E0426F6172C8
:104E20006420496E6974205B5B202A2A204C434B26
:104E30004642202A2A205D5D0D000000B0B57D218C
:104E4000090241431E480368262206E0E41A051FB2
:104E50002D686419A2188A4210D21C460368A34226
:104E600008D10368A34205D10368A34202D10368B5
:104E7000A342F3D09C42E9D9E41AEBE7B0BDC046A7
:104E8000B0B50F490B684001262206E0E41A0D1F59
:104E90002D686419A218824210D21C460B68A342E6
:104EA00008D10B68A34205D10B68A34202D10B685D
:104EB000A342F3D09C42E9D9E41AEBE7B0BDC04667
:104EC00018E000E0F0B583B0012600961127002419
:104ED00040230193204639462246FDF74BFF0096BA
:104EE00080253F2120460B4602912A46FDF742FFCE
:104EF00000967F2039460246019BFDF73BFF009656
:104F0000204639462A463B46FDF734FF00960425E5
:104F1000204639462A463B46FDF72CFF00960327DC
:104F2000182120463A460B46FDF724FF0096202123
:104F300020462A460B46FDF71DFF009628212046F5
:104F40003A460B46FDF716FF0096302120462A46CA
:104F50000B46FDF70FFF0096382120463A460B46D8
:104F6000FDF708FF0096204602992A460B46FDF7FA
:104F700001FF03B0F0BDF0B583B001260096112407
:104F8000002540230293284621462A46FDF7F2FEDB
:104F9000009680273F2128463A460B46FDF7EAFE59
:104FA00000967F2021460246029BFDF7E3FE009615
:104FB000284621463A462346FDF7DCFE03B0F0BD05
:104FC000F0B583B0904CFDF70DFA0746206001263E
:104FD00030400290009020241025204629460E4A99
:104FE0002B46FFF7A3FBBE4300960C4A2221204626
:104FF000854C2B46FFF79AFBFEF77AFF5D48006869
:105000000006E0D40120FFF73BFF5A480068000685
:10501000D9D4029803B0F0BD160020201F00202034
:10502000F0B581B0002801D0154C00E0134C800091
:1050300014490D18012637462879297800963F2211
:10504000511AC9B2101AC3B2FAB2781EC0B2FDF733
:1050500091FE00967020082122460B46FFF766FB62
:105060002D1D7F1C7F2FE7D1FEF742FFFDF7AAFF22
:105070000120FFF7E3FE01B0F0BDC0460A0020208A
:105080000D0020209C19202007490A68D20708D06B
:105090000A68D20705D00A68D20702D00A68D20788
:1050A000F3D1C2B28A6170470891104070B50022F6
:1050B000534801211346144604E02A46491C801C2B
:1050C000042C12DA05884688B542F7D245888688CE
:1050D000B542F3D9002C05D0641C042C0D46ECD04D
:1050E0001546EAE701240B46E8E7D11A7D200002C5
:1050F00000F0B2F870BDC04670B5012045021D4EEB
:105100003068800516D401242046FFF7B9FE3068C8
:1051100028420FD13068284208D13068284205D192
:105120003068284202D130682842F3D01248017812
:1051300061400170104C2078002802D170BD002021
:10514000207020780028F9D030682842F9D1012059
:10515000FFF796FE30682842F3D130682842EED13E
:1051600030682842EBD130682842E8D130682842C4
:10517000F3D0E4E780130A40C81D202082B0FFF777
:105180003BFEFEF7A7FCFDF709FAFFF7C9FD01207A
:10519000C103174A1160174A116002211160164AB3
:1051A000164B5360164B936013680B431360000259
:1051B00014490A6802430A6000200190124C134D02
:1051C000134E01E0FFF7DAFAFDF7FCFEFDF70AF9EE
:1051D0002060FDF7F7F82860FDF7FCF83060FFF776
:1051E000EFFE0128EED00028EED1FCF72DFFEBE713
:1051F00080E200E000E100E000B2424080120040A6
:10520000B000202004110040B0142020B41420204D
:10521000B814202043088B421AD3002203098B4282
:1052200079D3030A8B425ED3030B8B4242D3030C28
:105230008B4227D30902FF2212BA030C8B4202D3FE
:105240001212090203D0030B8B4233D31AE0D3E0CE
:10525000411A8041401C704703460B4371D44308F8
:105260008B42F5D3002203098B4254D3030A8B42AD
:1052700039D3030B8B421DD3030C8B4202D39446CC
:105280006EE0090AC30B8B4201D3CB03C01A524113
:10529000830B8B4201D38B03C01A5241430B8B42C9
:1052A00001D34B03C01A5241030B8B4201D30B03B2
:1052B000C01A5241C30A8B4201D3CB02C01A5241D9
:1052C000830A8B4201D38B02C01A5241430A8B429C
:1052D00001D34B02C01A5241030A8B4201D30B0285
:1052E000C01A5241CDD2C3098B4201D3CB01C01A9F
:1052F000524183098B4201D38B01C01A52414309A9
:105300008B4201D34B01C01A524103098B4201D396
:105310000B01C01A5241C3088B4201D3CB00C01A03
:10532000524183088B4201D38B00C01A524143087B
:105330008B4201D34B00C01A5241411A5241100016
:105340007047CA0F00D04942031000D34042534077
:1053500000229C4603098B422DD3030A8B4212D3B1
:105360008901FC2212BA030A8B420CD389019211E3
:105370008B4208D3890192118B4204D3890137D023
:10538000921100E08909C3098B4201D3CB01C01AF5
:10539000524183098B4201D38B01C01A5241430908
:1053A0008B4201D34B01C01A524103098B4201D3F6
:1053B0000B01C01A5241C3088B4201D3CB00C01A63
:1053C000524183088B4201D38B00C01A5241D9D27B
:1053D00043088B4201D34B00C01A5241411A00D2FC
:1053E00001465241104663465B1000D3404270476D
:1053F00063465B1000D3404201B50021004201D05A
:10540000C9430846C046C04602BDF0B4040C8BB286
:10541000264682B25E430D0C1046370C58433604C4
:1054200080190021794116466E43370C36048019E5
:10543000794126466E438919F0BC70474900CA027B
:105440000243100000D004204A0D01D00122104375
:10545000044A490D914201D102210843012800D19B
:1054600005207047FF070000F7B596B014460021ED
:10547000A160D160179909914D00CD496D088D4209
:1054800005DC179961602060002019B0F0BDC949A2
:10549000C94E8D4238DAD32709997F050029C74ABA
:1054A0001799334617DDFBF764F9B54206D0C44AB5
:1054B000C44BFBF75EF96160206009E03A46C14BDE
:1054C000FBF757F9C04AC14BFBF753F96160206005
:1054D000012019B0F0BDFBF73FF9B54206D0B84A3C
:1054E000B84BFBF739F96160206009E03A46B54BEB
:1054F000FBF732F9B44AB54BFBF72EF96160206037
:105500000020C04319B0F0BDB1498D42179977DC36
:10551000490049080746AF4AAF4B0491FBF7D2FB5D
:105520000022AE4BFBF718F9FBF76AFB0A90FBF77A
:10553000BEFBA24A334603910290FBF7C3FB3A46F7
:10554000049BFBF721F906460F469D4A9D4B0399A4
:105550000298FBF7B7FB2A0D01250C9232463B4619
:10556000FBF712F961602060032D39D04800410D2E
:105570000C98401A690169181139814230DA98494A
:105580002801794408960D9008180497436802682A
:1055900003990298FBF796FB02460B46079106908B
:1055A00004990898FBF7E5F806460F46049B089A0D
:1055B000FBF7EAF8079B069AFBF7DBF805918949A8
:1055C000049079440D984018C36882680399029842
:1055D000FBF778FB059B049AFBF7CBF86D1CBDE746
:1055E0000998002809DA01226068D20750406060FB
:1055F0000A9819B04042F0BD02E00A9819B0F0BD17
:1056000009030122090B12050E90891817981091B1
:1056100040007549400D40184111C006C00E0D9163
:1056200013902021081A1490002006900525079059
:10563000139800280D980CD0401982006B487844CC
:10564000875813998F40101841681498C1400F4330
:1056500004E040198100664878444758109938465C
:10566000FFF7D3FE06460A9138460E99FFF7CDFEA6
:105670008A190A9B8A4201D2012100E00021C9183F
:105680008C46AF00694679188B684E68C318834210
:1056900001D2012000E0002096193618002802D01F
:1056A000964202D903E0964201D2012000E0002098
:1056B000624612184E6068468B60C25128466D1EC5
:1056C0000028B5DC0121029849074018800F13908B
:1056D000029805998000039E049D0B91FBF7E7FA61
:1056E000074630460891FBF7EAFA1D22D243FBF742
:1056F0009BFD10900F912846FBF7E1FA3D22D24323
:10570000FBF792FD0E900D910B98FBF7D8FA5D22F6
:10571000D243FBF789FD0B910C900D9B0E9AFBF782
:105720001BF80F9B109AFBF717F83A46089BFBF7FC
:1057300013F800250E463A462846089BFBF719F851
:105740000F9B109AFBF715F80D9B0E9AFBF711F8BB
:105750000B9B0C9AFBF718F8264A274BFBF7B2FA7B
:1057600007460D91254A264B31462846FBF7AAFAF3
:105770003A460D9BFAF7F0FF0F4615220C90920661
:105780001D4B31462846FBF79DFA3B460C9AFAF72B
:10579000E3FF179A002A05DA139A52421392012264
:1057A000D207514061602060139819B0F0BD00002D
:1057B000FB21E93F7CD90240FB21F93F0000405426
:1057C0003163621A61B4D03D7370032E8A19A33B12
:1057D000FB21394183C8C96D305FE43F0000E03FE1
:1057E000BA0900007A0900000BFCFFFF2E09000037
:1057F00014090000182D4454FB21F93D3326A6114D
:10580000460B113CF0B51FB44E00F9207608800518
:1058100084B00F46864204DA0498FBF7F1F90028B9
:1058200038D0049A3B4610461946FBF74BFA04461B
:1058300002462C480D460B460621784400F05CF8E1
:1058400022462B46FBF73EFA019100903946079B12
:10585000069A0498FBF736FA074602912046294635
:10586000019B009AFBF72EFA3A46029BFAF781FF5A
:10587000074600220091D24320462946FBF7D4FC7C
:10588000194A96420ADA3A46009BFAF772FF00225A
:10589000164B23E00020154909B0F0BD144A96428A
:1058A00002DD0024134D03E001225205B51A002445
:1058B00022462B46FAF75DFF0646019122462B460B
:1058C00000200A49FAF755FF0D4604463A4630468D
:1058D000009B0199FAF74DFF22462B46FAF754FF39
:1058E00009B0F0BDD20600003333D33F0000F03FD3
:1058F0000000E93F0000D23FF8B504464F1EC80043
:105900000838211815461E46086849683A46062395
:105910009A4310D02A463346FBF7D4F93A46D200D0
:10592000083AA3181A687F1E5B68FAF715FF06226B
:105930003B469343EED1022F23D0042F11D0062FE4
:105940002FD12A463346FBF7BDF9E36AA26AFAF77C
:1059500003FF2A463346FBF7B5F9636A226AFAF772
:10596000FBFE2A463346FBF7ADF9E369A269FAF775
:10597000F3FE2A463346FBF7A5F963692269FAF775
:10598000EBFE2A463346FBF79DF9E368A268FAF777
:10599000E3FE2A463346FBF795F963682268FAF777
:1059A000DBFEF8BDF0B51FB4054648000C46F921F2
:1059B0004008890586B088420BDA28462146FFF761
:1059C0003DFD042801D100F071F8284621460BB0B6
:1059D000F0BD2A46234610461946FBF773F90646E2
:1059E0000F462A462346FBF76DF9009025480191A2
:1059F00032463B4605217844FFF77EFF029010981F
:105A00000391002829D0204A204B01990098FBF7E8
:105A100059F90490059168460FC8FBF753F9002225
:105A200001910090D24309990898FBF7FDFB019B77
:105A3000009AFAF79EFE32463B46FBF743F9099B74
:105A4000089AFAF796FE059B049AFAF792FE2A4600
:105A50002346FAF799FE0BB0F0BD0B4630463946A7
:105A6000029AFBF72FF9084A084BFAF775FE019BDB
:105A7000009AFBF727F92A462346FAF76DFE0BB08A
:105A8000F0BD000016060000495555555555C5BFD7
:105A900010B50122FBF7C8FB10BD002210B513465C
:105AA00010461146FAF788FE10BD0000034A10B5F3
:105AB00000201107FBF7B8FB10BD000001FDFFFF40
:105AC00010B500F061F8EFF300804000800F01286E
:105AD00000D0002010BD10B500F0CEF8EFF300802C
