:020000040000FA
:10000000301F20208D0100009101000093010000AD
:1000100000000000000000000000000000000000E0
:10002000000000000000000000000000950100003A
:10003000000000000000000097010000990100008E
:100040009B010000091A00009B0100009B010000B9
:100050009B0100009B0100009B0100009B01000030
:10006000000000009B0100009B0100000000000058
:10007000000000009B0100009B010000A93A000065
:100080009B0100009B0100009B0100009B01000000
:100090009B0100009B010000000000000000000028
:1000A0009B0100009B010000000000000000000018
:1000B0009B010000000000009B0100009B0100006C
:1000C00000F002F800F052F812A030C808382418E6
:1000D0002D18AC4201D100F049F80FCCA246AB4636
:1000E0000CA730CF2D1B083F3F197C427F1E544484
:1000F0002D090426F441641EAC4201D300F036F809
:100100000126334200D0FB1A3343984754465D46DC
:10011000DFE70000B45D0000D45D000000000000D7
:10012000103A02D378C878C1FAD8520701D330C840
:1001300030C101D504680C60704700000000000069
:100140007047000000000000002300240025002666
:10015000103A01D378C1FBD8520700D330C100D583
:100160000B6070471FB51FBD10B510BD01F080F8C2
:100170001146FFF7F7FF03F065FE01F098F803B4AE
:10018000FFF7F2FF03BC03F0BDFC00000648004788
:10019000FEE7FEE7FEE7FEE7FEE7FEE70348044969
:1001A000024A044B70470000C1000000301E2020AE
:1001B000301F2020301E202010B5044603E003F03D
:1001C000C7FD401C08D020780549641C0028F6D1E2
:1001D0000A2003F0BDFD10BD0020C04310BD00008B
:1001E00028192020002203098B4273D3030A8B4273
:1001F00058D3030B8B423CD3030C8B4221D312E028
:1002000003460B437FD4002243088B4274D3030977
:100210008B425FD3030A8B4244D3030B8B4228D318
:10022000030C8B420DD30902FF2212BA030C8B423E
:1002300002D31212090265D0030B8B4219D300E0DE
:10024000090AC30B8B4201D3CB03C01A5241830B63
:100250008B4201D38B03C01A5241430B8B4201D313
:100260004B03C01A5241030B8B4201D30B03C01A3C
:100270005241C30A8B4201D3CB02C01A5241830AB6
:100280008B4201D38B02C01A5241430A8B4201D3E5
:100290004B02C01A5241030A8B4201D30B02C01A0F
:1002A0005241CDD2C3098B4201D3CB01C01A524176
:1002B00083098B4201D38B01C01A524143098B42FF
:1002C00001D34B01C01A524103098B4201D30B01E8
:1002D000C01A5241C3088B4201D3CB00C01A52410D
:1002E00083088B4201D38B00C01A524143088B42D2
:1002F00001D34B00C01A5241411A00D2014652416B
:10030000104670475DE0CA0F00D04942031000D389
:10031000404253409C46002203098B422DD3030ADE
:100320008B4212D38901FC2212BA030A8B420CD3EE
:10033000890192118B4208D3890192118B4204D317
:1003400089013AD0921100E08909C3098B4201D397
:10035000CB01C01A524183098B4201D38B01C01AD1
:10036000524143098B4201D34B01C01A5241030948
:100370008B4201D30B01C01A5241C3088B4201D3F7
:10038000CB00C01A524183088B4201D38B00C01AA4
:100390005241D9D243088B4201D34B00C01A52417B
:1003A000411A00D201465241104663465B1001D308
:1003B0004042002B00D54942704763465B1000D392
:1003C000404201B50449002802DC491C084000E015
:1003D0000846C046C04602BDFFFFFF7F704770471A
:1003E000704700000246C80FC00781434B0030B57C
:1003F0004B405B009B0D20D01923DB06C91801235D
:100400001B05994220DB0324A40704251346AB40B7
:100410000BD3002B04D1EB0613409B00E34204D422
:1004200001246407002312195941FF231B05994237
:100430000BD2C9000143500F09E0CB0204D50143A0
:100440000803024305D0054830BDFF21C905084314
:1004500030BD084607210905884330BD0000C07F34
:10046000F0B50C46871A9C410D46861A9D4103D271
:10047000C01BA141D21963410D0D1F0DC94EEC1BCC
:10048000AE435CD07F057F0D0026002F51D02D0597
:10049000AC46A943DD020123ED0A1B051D432023C1
:1004A0001B1B24D41746E740381871412F46E740FC
:1004B000CC199D402818314661410C0D27D161446B
:1004C0009A4013D50023401C594152000ED14008D8
:1004D000400001224B005205D34207D305204007BC
:1004E000C14201D5B04900E0B0493046F0BD6B00D3
:1004F000002A00D001229A181F23203C1B1B01D583
:10050000002302E0E540281871410C0DD7D00124EA
:1005100024050919C407CD0740084908E40F2843FA
:100520006144002CD5D00024401C61419A40D0D1B8
:10053000CDE76A05520DD9D1C90FC907D5E79C4D42
:100540004E00002801D0012400E0002434195F008F
:10055000002A01D0012600E00026BE19954FAC42CA
:100560000CD8AE420AD8B44206D001256D05EC4243
:10057000BCD010461946F0BD9942FCD00020394647
:10058000F0BDF0B51FB40C460F46811A9F412546B9
:10059000861A9D4106D20125ED076F40401ABC41E5
:1005A00052187B41210D1E0D8D1BAC467D4D8D4398
:1005B0007ED075056D0D7CD00D05AE46AC431B039A
:1005C0001B0B794D52429D41202366469B1B14D341
:1005D0001746F740381800260090744160462F46B1
:1005E0000741E41900989D402818664116D47146C9
:1005F00071189A4025D5012320E093182A466A41B4
:100600005200002B00D0521C1E23203E9B1B002BAF
:1006100061DD3541EE1728186641E8D500187641AE
:100620005B1C9A4000D3401C4B05F3181524E34093
:1006300010D3002B52D071467118D30FC01802D3BB
:10064000491C05B0F0BD0123DB079A42F9D14008EF
:100650004000F6E701225205B21801D1002853D01C
:100660000123CC0ADB029943891E002A08D1020C1F
:1006700003D0020C0004103902E0024600202039A9
:100680000023550B05D112020823550B01D152014D
:100690000D23550C01D112011B1DD50C01D1920067
:1006A0009B1C150D01D152005B1C2025EE1A01E0A8
:1006B0002CE022E00546F54015439840CA1AE107B0
:1006C00069181305C918002ABBDA03204007081867
:1006D000C10FC9070FE071466118B2E7F107400882
:1006E0000843711071444A000CD001235B059A4203
:1006F000A7D2C90FC9070020A3E74905490D26D194
:10070000002001E00028F4D100219AE7284D66007E
:10071000002801D0012100E0002171185F00002AAB
:1007200001D0012600E00026BE19224FA94210D8B0
:10073000AE420ED8B14208D001256D05E94206D07F
:100740001946A802414010467BE79C4201D0214651
:1007500077E70020394674E710B50C465C4005D5B4
:100760000124E4076340FFF70CFF10BDFFF778FE9C
:1007700010BD30B40C465C4004D50124E40763404E
:1007800030BC6DE630BCFCE670B50124E407614086
:100790000D465D4002D4FFF763FE70BD6340FFF776
:1007A000F0FE70BDFF0700000000F0FF0000F07FCA
:1007B0000000E0FF0000F87FF0B5F94D0C091E09BC
:1007C0002C402E402F468BB0A7437DD0B543FCD0A4
:1007D000002E7AD0002CFCD00D465D40ED0F254355
:1007E000AC1BFF25AD0464190894C502440DC90271
:1007F0002143500DDC0204430120C00701430443A0
:10080000D2020191200C110C00958C460104234664
:100810008B430A9161460904E24D8A430991010A1A
:100820007D4449198039097805464D4301266D18E4
:10083000F605751B6943C90C640B891C4C4364188D
:10084000B5012C1B250C2E04B4434C434D43210C05
:10085000691889090591009DE90701D00121C9079F
:1008600004912C4601996708CD072F434C08059D3C
:10087000E10B4D432D0C29466646754302950D4606
:1008800045432E46029D7D1BB44100950D465D43B8
:1008900001942C0C2F040D465543AE462D0C3D43C0
:1008A000029503947546049C2D04641B049406D29F
:1008B000029C039D641C002675410395029401ACC3
:1008C00070CC009F7D1B01E03EE162E1B441090470
:1008D0000095079101940599A4086143090C0C4601
:1008E0004443650BE7040C4666467443A646640B16
:1008F0003C43039502947446049DE4042C1B049429
:1009000006D2029C039D641C002675410395029447
:1009100001AC70CC009F7D1BB44101940C465C433C
:100920000095650FE7000C465443A646640F3C4310
:10093000039502947446049DE4002C1B049406D293
:10094000029C039D641C002675410395029401AC32
:1009500070CC009F7D1BB441AE09AF06049DC90059
:10096000AD092F43049DA406AD060495079D3443AD
:1009700069180791059DE10B4D432D0C29466646EC
:10098000754302950D4645432E46029D7D1BB4419D
:1009900000950D465D4301942C0C2F040D465543E4
:1009A000AE462D0C3D43029503947546049C2D04E0
:1009B000641B049406D2029C039D641C00267541AE
:1009C0000395029401AC70CC009F7D1BB44101944F
:1009D0008C050694079C890A611800950791019C73
:1009E0000599A4086143090C0D464543680BEF04C3
:1009F0000D46644665436C0B3C43049FED047D1B30
:100A0000AC4602D20025641C6841009E019D371B44
:100A100085410846584301950C46460FC50054438E
:100A2000600F28436546E4002C1B02D20025401CC1
:100A30006E41019D3F1AB5412846BD0980062843F5
:100A40008446A009BF064E020699A40676180743FD
:100A5000079D002068410A99079019430020099BCF
:100A600000906046FF1913434041E20F64003A438F
:100A7000A4460446D71A8C41A04203D90120009015
:100A800020463A46C70F941840416246D20F22438F
:100A9000644664000494009CBE466400D71AA446D1
:100AA000044602978C417746002F01D1A04204D919
:100AB0006046401C8446029A2046C40FA6469418FD
:100AC0004041049A0546D20F224364466400D31A7B
:100AD0008D417146002901D1A84202D928461A4603
:100AE000641C10430122002800D01643610200203C
:100AF000079B891904465C410223002C02DB49183C
:100B000013466441089DCE0A2D145D194B056705F7
:100B1000E10A2C050D1908993E43C9076940002BCD
:100B200008D0934006D30022761C5141002B01D1FE
:100B3000760876001C4A002D43DB154241D0AA43BB
:100B40003FD030460BB0F0BD06180D464D41174C56
:100B50007642AC411AD395181C465C41134A6D424B
:100B6000A24113D3012252054C00D4420AD15C00A9
:100B7000D4420BD04B4002D592021143E2E7490028
:100B80004908DFE75940C90FC90718E000200849A4
:100B9000D8E7054801420DD10342F7D0F2E7000043
:100BA0000000FF07983B00000000F07F0000E0FF1E
:100BB0000000F87F114859400143C0124140002015
:100BC000C0E70123089A9B069A4205DC03225207DC
:100BD0008918C90FC907B5E7052252078918074ABE
:100BE0001143D2125140ADE770B515461C4602467E
:100BF0000B4628462146FFF7DFFD70BDFFFFFF7F54
:100C000030B50346CA02400D1043164D164C0A1566
:100C100002D02043002A06DBAA1A002A12DDD040A7
:100C2000FF2A0BDC30BD5205520D01D140004008B7
:100C3000AA1A07D4D0404042FF2A01DD002030BD6F
:100C40000028FCDD4A00002B01D0012000E000203C
:100C5000101801225205D042F0D8C817C043604096
:100C600030BD00001E040000000000801F22030CA5
:100C700002D10F22000402D0030E03D004E00020B2
:100C8000014670470002083A030F01D10001121F0C
:100C9000830F01D18000921E002801DB4000521E0C
:100CA000120551184205C012411810467047C10F75
:100CB000C90700D04042012292071143D6E7012123
:100CC0008907D3E7F0B58B4C0F09254689B0BD43A2
:100CD0007BD01D092646AE43FAD00E465E40274023
:100CE000F60F3E43254071D024012142FBD0FF2462
:100CF000AD19A4042D1B039501252D05DB02DB0A8C
:100D0000C9022B43C90A29431E010901040F130F0D
:100D1000050121431701880B820391432D098C465D
:100D2000A90B1E438A039543B30B9A0396433F09CD
:100D3000BA0B9403A74302962E467E430497B64609
:100D40004E19D7190C460196544305977E43371B1D
:100D50007646BF1B3601B646BE0B36190096764660
:100D6000BC043719009C01D3641C00946400002F5C
:100D700001D001263443029E049F754366467E439C
:100D80000496760034196E0034190094029C019E7A
:100D90001C196643751BAE46069465464519059CAD
:100DA00005956C43594375460891691A0191049E53
:100DB00001465143A41B0491611A009C0791E1066E
:100DC00005D061090122114302E072E06EE0610981
:100DD000089D00272C0A2D066918049D7C412A0ACB
:100DE0002D066918019D6241AC0DAD026D1854418C
:100DF000079A910D920255196141029A644658432F
:100E00005443069B059A5A43121A131B9A0E9B01D0
:100E10005B187A41010B0005C3185141220A2006D4
:100E200044195A419A4200D2491C01204002814291
:100E300003D315230226F64302E014230326F643C8
:100E40002020C51AA9401746AF40DA400A43204681
:100E50000399D8400914731819055118039A384397
:100E6000D2075140AC4009D00122944006D3002261
:100E7000401C5141002C01D1400840001E4A9342C1
:100E800012D3012203989206904207DB0520400707
:100E900009181A480143C012414004E003204007EA
:100EA0000818C10FC907002009B0F0BD0020F107E4
:100EB000FAE705180C464C4111486D42A04115D384
:100EC00094181A465A410E48644290410ED30120AC
:100ED0004A004005824209D35A00824206D3594053
:100EE000C90F084AC90700201143DDE70020064961
:100EF000DAE700000000FF07FE070000FFFFFF7FAA
:100F00000000E0FF0000F07F0000F87F0121C9052C
:100F10000123411842001B06D3185B0E0AD0C110F2
:100F20000722D206891840075242D14201D5520009
:100F300089187047090208D50146002A03D0C10F5D
:100F4000C9070020704710467047420202D00020B7
:100F500002497047072109050143F4E70000F87FC3
:100F6000F0B5FF252D04C609C209FF2704462E400F
:100F70000137CB093E4348402A402B400746002A10
:100F80006BD0002B69D0AA4267D0AB4265D0002855
:100F900000DA32460125ED0529432C4309022002DF
:100FA000090AD21A4B0C7F24E31A434C000A7C44F2
:100FB000E35C7D242404121914145B00A2188842F7
:100FC00001D3521C00E0400049420C465C4324110E
:100FD0005C43DB016415E318040A5C43C502200D81
:100FE0000C4644436419250A5D432303EC0C0D466B
:100FF000654300030019EB184C42A34201D35B1870
:10100000401CD4052018002B07D05B00C91804D35E
:10101000401C002901D1400840003F2189048A4238
:1010200009D3002A08DC1106090F04D0032149075F
:101030004018C00FC007F0BD0122410012068918F8
:101040007F2252069142F6D205214907C84201D5B6
:101050009010F0BDFF20C005F0BD002F00DA324631
:101060001648AA4207D2AB4205D21902090E17D080
:10107000F80FC007F0BDFF2563002D06AB42F9D87D
:101080004900A942F6D8AB4201D1A942F2D0A94207
:1010900001D1002101E061004908D0050843F0BDFD
:1010A0001102090EFBD0FF200243D005F0BD0A4615
:1010B0000146104654E700008A3400000000C07F5B
:1010C00010B501469E240002CA15A307002A02D0CB
:1010D0001843002A04DBA21A002A0CDDD04010BD00
:1010E0001206120E01D140004008A21A03D4D040CB
:1010F00040420028F3DDFF2248001206904201D949
:10110000002010BDC817C043584010BD1F22030C5B
:1011100002D10F2200041CD0030E01D10002083AB4
:10112000030F01D10001121F830F01D18000921E15
:10113000002801DB4000521ED2055118021251183E
:101140001922904004D3491C002801D149084900C4
:1011500008467047C10FC90700D0404201229207DC
:101160001143D3E701218907D0E70000F8B5264CE9
:101170004E00069DA6420AD8A64201D1002806D1FB
:101180005E00A64203D8A6420AD1002A08D00D2448
:101190002404254233D02946002000F090F8F8BD01
:1011A0000C461C4311D4994207D0C81A02D3EFF35E
:1011B0000080F8BDEFF30080F8BD801A02D3EFF392
:1011C0000080F8BDEFF30080F8BD09242407E50096
:1011D0008B4207D0581A02D3EFF3008006E0EFF3FA
:1011E000008007E0101A03D3EFF30080A04303E070
:1011F000EFF30080A043284380F30088F8BD0095FA
:1012000000F074F8F8BD00000000E0FF10B5FF2307
:101210001B0644009C421DD84C009C421AD8034631
:10122000124A0B4307D4401A02D3EFF3008010BDDB
:10123000EFF3008010BD081A03D3EFF30080904352
:1012400005E0EFF3008001219043C907084380F3D4
:10125000008810BD0D231B041A4204D01146002043
:1012600000F02DF810BD00F04BF810BD000000900C
:10127000754600F04DF8AE46050069465346C00875
:10128000C000854618B020B5FEF788FF60BCB646A2
:1012900000260027C0C5C0C5C0C5C0C5C0C5C0C5E3
:1012A000C0C5C0C5403D490849008D46704710B5CE
:1012B0000446C046C0462046FEF761FF10BDC80286
:1012C00012D54803400F002804D0C803C0430121B1
:1012D00088407047EFF300800001000903210907EF
:1012E000084380F3008870470020704710B5002045
:1012F0000249029A00F010F810BD00000000F87FCB
:1013000010B5024800F008F810BD00000000C07FD2
:10131000004870473800202010B50C461107090F0F
:10132000092904D00A290AD008290CD104E0114661
:101330000820FFF7C4FF06E0510606D501E051067C
:1013400001D50120C007214610BDD10607D50101F6
:101350000909CC084907000E0006044309E0410FC3
:1013600020024907000A0143200E00061D22D14138
:1013700001430846E7E70000B0B50A7803231340AD
:101380000B4A84580B4D2540EB18A92424061B1941
:101390008350072212064B6813401124240205597A
:1013A0009543EA180251001949780161B0BDC04661
:1013B00008080000FCFFFF00811E091F00BFFCD2CF
:1013C00070470000B0B5536894681C439389234369
:1013D000146955691C43D3892B431B0123430C011A
:1013E000041909256D026351137852781A43BF23FB
:1013F0001A4089004018034944589C43A21842509F
:10140000B0BDC04610110000B0B5112212028358C1
:101410000C4C1C400B894D881D438B792B430A4D86
:101420001D4063198350CB798C881C430978214374
:101430005D239B001940801842689A43511841600F
:10144000B0BDC04680CCFFFF7F33000010B5012245
:10145000120383180C785C604978815010BD00003D
:10146000F0B585B001221402344B19680494A143ED
:101470001960950362490E682E4208D10E682E420B
:1014800005D10E682E4202D10E682E42F3D0457E61
:1014900015409E69964375199D612025455D03267B
:1014A0003540DF69B7437D19DD61254D2E6805277D
:1014B0002F60476A3C681C627C685C620724344089
:1014C0002C60C4697F252D02DE69AE436406640C7E
:1014D0003419DC6150C80568009547688568019536
:1014E000C568029503929A69164D15402207120BA2
:1014F0003403A4B2A2183A43009C2407240D1443D9
:10150000019A1443029A1443007C20430E4A02407D
:10151000501998611868049A1043186003984002A3
:101520000A68024208D10A68024205D10A680242EA
:1015300002D10A680242F3D005B0F0BD08010B40A9
:10154000001340408D00F0FF72FF0F00F0B5184B04
:101550001D46083D2E680124A6432E60032636034F
:1015600030401F68B743381818601868FF26B0432A
:10157000C9B2401818602868204328601868002AFB
:1015800011D021070843186020021D490A68024251
:1015900008D10A68024205D10A68024202D10A68EB
:1015A0000242F3D0F0BD210788431860F0BDC04669
:1015B00010010B4010B511498860012253051048F5
:1015C00004681C4208D104681C4205D104681C420E
:1015D00002D104681C42F3D012040B6813430B6061
:1015E0000168C90608D40168C90605D40168C9069E
:1015F00002D40168C906F3D510BDC04604010B40F2
:1016000004020B40B0B51122120283580124A343F7
:1016100083508B780C881C438B882343094C1C40D7
:101620008358094D1D402B1983508B79CC791C436D
:10163000097A21437E231940801842689A43511841
:101640004160B0BD18670000E798FDFF10B50122AA
:10165000120383180C789C604978815010BD0000FB
:10166000F0B593B0DF4800240460E6480460E14828
:1016700004600120029000020490D14F02F0AAFA07
:1016800002F09EFB00F0B8F9DE49086000F0A4F912
:10169000D449086000F0A8F9D6490860C24800683B
:1016A000049908420AD10125284602F04FFABE48A3
:1016B00000680499084201D1A5432C46012C0994E5
:1016C00013D0002C39D10024F7480460F748006893
:1016D0003028039006D300240028204600D42F2071
:1016E000F2490860029807460EE00124EE480460C3
:1016F000F0480068002800D50C300C21FEF780FD72
:10170000AA48016000270298009400260825044694
:101710003146A74A2B4602F02FF800974827384653
:101720003146A44A2B4602F027F800943846294651
:10173000A14A2B4602F020F8A14F9C4C22680121BF
:101740000820089000900B91019170200026022340
:10175000314601F0B3FF3F20039C001BC1B27F2242
:1017600030460B4600F050FE2046FFF7A0FA324606
:10177000924BFFF7A7FA3D46374632462B46FFF716
:101780001BF8069005912046FFF7E4FC00F094F961
:101790000790F148006841000F9100010A908949C3
:1017A00011910888FFF78BFA00242246864BFFF739
:1017B00003F8864A864BFFF785FA22462B46FFF749
:1017C00081FAFFF71DFA0721129102F0A5FB0E978F
:1017D000E249C851CE19109611980F9FC05BFFF7D0
:1017E0006EFA2246784BFEF7E7FF784A784BFFF710
:1017F00069FA22462B46FFF765FAFFF701FA129DB8
:10180000294602F089FB70601198C619F05BFFF75A
:1018100056FA22466C4BFEF7CFFF6C4A6C4BFFF733
:1018200051FA2246664BFFF74DFAFFF7E9F92946D0
:1018300002F072FB10998860F619F05BFFF73FFA2F
:101840002246614BFEF7B8FF604A614BFFF73AFA58
:1018500022465B4BFFF736FAFFF7D2F9294602F032
:101860005BFB109DE860F619F05BFFF728FA224653
:10187000554BFEF7A1FF554A554BFFF723FA224679
:101880004F4BFFF71FFAFFF7BBF9129902F044FB29
:101890002861F0190D90C05BFFF711FA22464A4B00
:1018A000FEF78AFF494A4A4BFFF70CFA2246444B9F
:1018B000FFF708FAFFF7A4F9129D294602F02CFB66
:1018C000109E706139460D98C719785AFFF7F7F9DD
:1018D0000C9422463C4BFEF76FFF3C4A3C4BFFF713
:1018E000F1F92246364BFFF7EDF9FFF789F9294662
:1018F00002F012FBB06134460F997818304D405A0F
:10190000FFF7DDF90C9E32462F4BFEF755FF2F4AAD
:101910002F4BFFF7D7F932462B46FFF7D3F9FFF7E6
:101920006FF9129902F0F8FA1199E0610A98091812
:101930000E9A20320B9880021746824200D02FE781
:1019400006980599FEF74EFD064602F013FA12902E
:10195000202700253846294632460B9E334601F0A3
:10196000DFFC00963046089C21461A4A234601F0C7
:1019700003FF0094019604233846114F2146129A22
:1019800001F09CFE079802F0AFF90A2002F0DEF8A1
:10199000434800680128099C00D06FE64048056074
:1019A000284613B0F0BDC04680130A400000202036
:1019B0002D002020040020202700202000001C40B3
:1019C000000059409800202000FEAF406666666621
:1019D00066660A40100020203449086800220A6028
:1019E0007047C0469C1420203249086800220A60D3
:1019F0007047C046A01420202D49086800220A60C4
:101A00007047C0469814202023480068012841D11F
:101A1000012022490A6852030FD40A68D20413D461
:101A20000968890436D500031E4A13681E490968EF
:101A3000034214D101290FD011E08204184B186021
:101A40000869104308617047164A13681649096807
:101A50009B0403D4012901D1164805E04003136813
:101A600003400B4307D111480168491E016010482B
:101A70000168491E0DE01268024203D0012901D11C
:101A80000C4800E009480168491C016008480168E9
:101A9000491C01607047C0463011404038100A4070
:101AA0007C1D202080130A40A41420209C14202098
:101AB00098142020A0142020F0B585B0044604A876
:101AC0000021018003A8018002AA118000887F28DC
:101AD0003DD8214806683046FFF73CFB214602F01E
:101AE0003DFB01903046FFF7E2F806460F461B4DDE
:101AF00006E00398401C03A908800888802826D2A5
:101B00000398C01C02A9088003A8008880002858F8
:101B1000FFF728FB214602F0E9FB0121C9078843B2
:101B2000FFF7F4F932463B4602F0CFFA0028E0D145
:101B300002A8008880002858FFF714FB014601988E
:101B400002F0CEFA0028D4D1039804A9088004A892
:101B5000008805B0F0BDC046000020207C19202080
:101B6000F0B584B0014CF834802501E0A8142020A1
:101B70000026267020460838067020461038067069
:101B8000204618380670204620380670204628382F
:101B900006702046303806702046383806702046D9
:101BA0004038067020464838067020465038067087
:101BB000204658380670204660380670204668383F
:101BC0000670204670380670204678380670204629
:101BD0008038067020468838067020469038067097
:101BE0002046983806702046A03806702046A8384F
:101BF00006702046B03806702046B8380670204679
:101C0000C03806702046C83806702046D0380670A6
:101C10002046D83806702046E03806702046E8385E
:101C200006702046F03806702046F838067001220B
:101C30001302E418203D9BD1014DF935802401E0C9
:101C4000A81420202E702846083806702846103820
:101C50000670284618380670284620380670284630
:101C600028380670284630380670284638380670FE
:101C700028464038067028464838067028465038AE
:101C80000670284658380670284660380670284680
:101C9000683806702846703806702846783806700E
:101CA00028468038067028468838067028469038BE
:101CB00006702846983806702846A03806702846D0
:101CC000A83806702846B03806702846B83806701E
:101CD0002846C03806702846C83806702846D038CE
:101CE00006702846D83806702846E0380670284620
:101CF000E83806702846F0380670E818F83D2E706F
:101D0000203C05469ED1024DFA35802402E0C046B3
:101D1000A81420202E70284608380670284610384F
:101D2000067028461838067028462038067028465F
:101D3000283806702846303806702846383806702D
:101D400028464038067028464838067028465038DD
:101D500006702846583806702846603806702846AF
:101D6000683806702846703806702846783806703D
:101D700028468038067028468838067028469038ED
:101D800006702846983806702846A03806702846FF
:101D9000A83806702846B03806702846B83806704D
:101DA0002846C03806702846C83806702846D038FD
:101DB00006702846D83806702846E038067028464F
:101DC000E83806702846F0380670E818F83D2E709E
:101DD000203C05469ED1FC4DFB3580242E702846C4
:101DE00008380670284610380670284618380670DD
:101DF000284620380670284628380670284630388D
:101E0000067028463838067028464038067028463E
:101E100048380670284650380670284658380670EC
:101E2000284660380670284668380670284670389C
:101E3000067028467838067028468038067028468E
:101E400088380670284690380670284698380670FC
:101E50002846A03806702846A83806702846B038AC
:101E600006702846B83806702846C03806702846DE
:101E7000C83806702846D03806702846D83806700C
:101E80002846E03806702846E83806702846F038BC
:101E90000670E818F83D2E70203C05469ED1CA4DCC
:101EA000FC3580242E7028460838067028461038E5
:101EB00006702846183806702846203806702846CE
:101EC000283806702846303806702846383806709C
:101ED000284640380670284648380670284650384C
:101EE000067028465838067028466038067028461E
:101EF00068380670284670380670284678380670AC
:101F0000284680380670284688380670284690385B
:101F100006702846983806702846A038067028466D
:101F2000A83806702846B03806702846B8380670BB
:101F30002846C03806702846C83806702846D0386B
:101F400006702846D83806702846E03806702846BD
:101F5000E83806702846F0380670E818F83D2E700C
:101F6000203C05469ED1F14DFD3580242E7028463B
:101F7000083806702846103806702846183806704B
:101F800028462038067028462838067028463038FB
:101F900006702846383806702846403806702846AD
:101FA000483806702846503806702846583806705B
:101FB000284660380670284668380670284670380B
:101FC00006702846783806702846803806702846FD
:101FD000883806702846903806702846983806706B
:101FE0002846A03806702846A83806702846B0381B
:101FF00006702846B83806702846C038067028464D
:10200000C83806702846D03806702846D83806707A
:102010002846E03806702846E83806702846F0382A
:102020000670E818F83D2E70203C05469ED1F54D0F
:10203000FE3580242E702846083806702846103851
:10204000067028461838067028462038067028463C
:10205000283806702846303806702846383806700A
:1020600028464038067028464838067028465038BA
:10207000067028465838067028466038067028468C
:10208000683806702846703806702846783806701A
:1020900028468038067028468838067028469038CA
:1020A00006702846983806702846A03806702846DC
:1020B000A83806702846B03806702846B83806702A
:1020C0002846C03806702846C83806702846D038DA
:1020D00006702846D83806702846E038067028462C
:1020E000E83806702846F0380670E818F83D2E707B
:1020F000203C05469ED1F94DFF3580242E702846A0
:1021000008380670284610380670284618380670B9
:102110002846203806702846283806702846303869
:10212000067028463838067028464038067028461B
:1021300048380670284650380670284658380670C9
:102140002846603806702846683806702846703879
:10215000067028467838067028468038067028466B
:1021600088380670284690380670284698380670D9
:102170002846A03806702846A83806702846B03889
:1021800006702846B83806702846C03806702846BB
:10219000C83806702846D03806702846D8380670E9
:1021A0002846E03806702846E83806702846F03899
:1021B0000670E818F83D2E70203C05469ED191052A
:1021C0005B4B5C4C029106E0A8142020039E761C19
:1021D000082E00D1A8E0196104251D610396304640
:1021E000B03020632068C00608D52068C00605D539
:1021F0002068C00602D52068C006F3D41D601960AF
:1022000019611D61002626632068C00608D5206874
:10221000C00605D52068C00602D52068C006F3D4E4
:102220001D60196019611D611020009020632068F5
:10223000C00608D52068C00605D52068C00602D5AE
:102240002068C006F3D41D601960019504E01D608C
:102250001960361D802EB9D0F000A04F3F182A46D5
:102260001D460B4603997F5C2B6029462A61276334
:102270002768FF0608D52768FF0605D52768FF06EB
:1022800002D52768FF06F3D4019A0A60029B2B60EF
:10229000082707439149CF1903997F5C2B60294692
:1022A0002A6127632768FF0608D52768FF0605D53A
:1022B0002768FF0602D52768FF06F3D4019A0A6053
:1022C000029B2B60074600990F438449CF1903995D
:1022D0007F5C2B602B4615461A6127632768FF0633
:1022E00008D52768FF0605D52768FF0602D52768A9
:1022F000FF06F3D41D60029A1A6018273843774905
:1023000008181146039A805C19601D6120632068DB
:10231000C0069CD52068C00699D52068C00696D511
:102320002068C006F3D492E704B0F0BDA8142020C2
:1023300090120A4010B14640F0B588B01C461346D2
:102340000A4607900021C8430692944201900090EB
:1023500000D100910698241A0125012C00DB00957C
:102360000798834200D101910798181A012800DBD1
:102370000195C2175040871AE0174440201A049074
:102380008742039700D8049F0D9802900A460E4694
:1023900003E0761CB0B2874231D305920720069A3B
:1023A0001040012585400798C0B2C0004B4B1C1857
:1023B0001006C20EA05C029B002B01D0284300E057
:1023C000A843A05404980D18BD4203DD0098069957
:1023D00009180691059903980C18BC4204DCE91B06
:1023E00008DDE21BD5DC08E00798019A8018079009
:1023F000E91BF6DC2946E21BCBDC2246C9E708B024
:10240000F0BDC046A8142020F0B585B00446161AC9
:10241000F01732464240101A01915D1AEA17294618
:102420005140891A884200D808460490FEF792FE6F
:1024300007463046FEF78EFE3946FEF791FD0390C3
:102440002846FEF787FE3946FEF78AFD02902046B1
:10245000FEF735FC00261D4C32462346FEF77CF97C
:10246000FDF7C0FF07460198FEF729FC32462346D8
:10247000FEF772F9FDF7B6FF044635460EE0039805
:10248000394601F06BFE07460298214601F066FED0
:1024900004466D1CEEB20498B04215D3F007EED19D
:1024A0002046FEF70DFE01900721014001268E40D7
:1024B0003846FEF705FEC000084908180199C9080A
:1024C000425C32434254DAE705B0F0BD0000E03F21
:1024D000B0B502480346F833802401E0A814202058
:1024E000002119701A46083A11701A46103A1170F4
:1024F0001A46183A11701A46203A11701A46283AAC
:1025000011701A46303A11701A46383A11701A464C
:10251000403A11701A46483A11701A46503A1170F2
:102520001A46583A11701A46603A11701A46683ABB
:1025300011701A46703A11701A46783A11701A469C
:10254000803A11701A46883A11701A46903A117002
:102550001A46983A11701A46A03A11701A46A83ACB
:1025600011701A46B03A11701A46B83A11701A46EC
:10257000C03A11701A46C83A11701A46D03A117012
:102580001A46D83A11701A46E03A11701A46E83ADB
:1025900011701A46F03A11701A46F83A1170012279
:1025A00012029B18203C9BD10446F93480232170F1
:1025B0002546083D29702546103D29702546183DC1
:1025C00029702546203D29702546283D297025463D
:1025D000303D29702546383D29702546403D2970FB
:1025E0002546483D29702546503D29702546583DD1
:1025F00029702546603D29702546683D297025468D
:10260000703D29702546783D29702546803D29700A
:102610002546883D29702546903D29702546983DE0
:1026200029702546A03D29702546A83D29702546DC
:10263000B03D29702546B83D29702546C03D29701A
:102640002546C83D29702546D03D29702546D83DF0
:1026500029702546E03D29702546E83D297025462C
:10266000F03D2970A518F83C2170203B2C469ED1E6
:102670000446FA34802321702546083D29702546FA
:10268000103D29702546183D29702546203D2970AA
:102690002546283D29702546303D29702546383D80
:1026A00029702546403D29702546483D297025461C
:1026B000503D29702546583D29702546603D2970BA
:1026C0002546683D29702546703D29702546783D90
:1026D00029702546803D29702546883D297025466C
:1026E000903D29702546983D29702546A03D2970CA
:1026F0002546A83D29702546B03D29702546B83DA0
:1027000029702546C03D29702546C83D29702546BB
:10271000D03D29702546D83D29702546E03D2970D9
:102720002546E83D29702546F03D2970A518F83C5E
:102730002170203B2C469ED10446FB34802321701F
:102740002546083D29702546103D29702546183D2F
:1027500029702546203D29702546283D29702546AB
:10276000303D29702546383D29702546403D297069
:102770002546483D29702546503D29702546583D3F
:1027800029702546603D29702546683D29702546FB
:10279000703D29702546783D29702546803D297079
:1027A0002546883D29702546903D29702546983D4F
:1027B00029702546A03D29702546A83D297025464B
:1027C000B03D29702546B83D29702546C03D297089
:1027D0002546C83D29702546D03D29702546D83D5F
:1027E00029702546E03D29702546E83D297025469B
:1027F000F03D2970A518F83C2170203B2C469ED155
:102800000446FC34802321702546083D2970254666
:10281000103D29702546183D29702546203D297018
:102820002546283D29702546303D29702546383DEE
:1028300029702546403D29702546483D297025468A
:10284000503D29702546583D29702546603D297028
:102850002546683D29702546703D29702546783DFE
:1028600029702546803D29702546883D29702546DA
:10287000903D29702546983D29702546A03D297038
:102880002546A83D29702546B03D29702546B83D0E
:1028900029702546C03D29702546C83D297025462A
:1028A000D03D29702546D83D29702546E03D297048
:1028B0002546E83D29702546F03D2970A518F83CCD
:1028C0002170203B2C469ED10446FD34802321708C
:1028D0002546083D29702546103D29702546183D9E
:1028E00029702546203D29702546283D297025461A
:1028F000303D29702546383D29702546403D2970D8
:102900002546483D29702546503D29702546583DAD
:1029100029702546603D29702546683D2970254669
:10292000703D29702546783D29702546803D2970E7
:102930002546883D29702546903D29702546983DBD
:1029400029702546A03D29702546A83D29702546B9
:10295000B03D29702546B83D29702546C03D2970F7
:102960002546C83D29702546D03D29702546D83DCD
:1029700029702546E03D29702546E83D2970254609
:10298000F03D2970A518F83C2170203B2C469ED1C3
:102990000446FE34802321702546083D29702546D3
:1029A000103D29702546183D29702546203D297087
:1029B0002546283D29702546303D29702546383D5D
:1029C00029702546403D29702546483D29702546F9
:1029D000503D29702546583D29702546603D297097
:1029E0002546683D29702546703D29702546783D6D
:1029F00029702546803D29702546883D2970254649
:102A0000903D29702546983D29702546A03D2970A6
:102A10002546A83D29702546B03D29702546B83D7C
:102A200029702546C03D29702546C83D2970254698
:102A3000D03D29702546D83D29702546E03D2970B6
:102A40002546E83D29702546F03D2970A518F83C3B
:102A50002170203B2C469ED1FF308023017004461C
:102A6000083C21700446103C21700446183C21703B
:102A70000446203C21700446283C21700446303C2A
:102A800021700446383C21700446403C21700446C5
:102A9000483C21700446503C21700446583C21704B
:102AA0000446603C21700446683C21700446703C3A
:102AB00021700446783C21700446803C2170044615
:102AC000883C21700446903C21700446983C21705B
:102AD0000446A03C21700446A83C21700446B03C4A
:102AE00021700446B83C21700446C03C2170044665
:102AF000C83C21700446D03C21700446D83C21706B
:102B00000446E03C21700446E83C21700446F03C59
:102B100021708418F8380170203B20469ED1B0BD4A
:102B2000F0B581B001246605074D2E61C8200090E4
:102B300001F00CF82E60A6052E6104272F61FE4CD3
:102B4000AE20206302E0C04690120A402068C00612
:102B500008D52068C00605D52068C00602D52068C3
:102B6000C006F3D42F602E602E612F6100222263F5
:102B70002068C00608D52068C00605D52068C006B4
:102B800002D52068C006F3D42F602E602E612F611D
:102B9000102020632068C00608D52068C00605D52F
:102BA0002068C00602D52068C006F3D42F602E60CE
:102BB0002E612F61402121632068C00608D520685E
:102BC000C00605D52068C00602D52068C006F3D42B
:102BD0002F602E602E612F61812020632068C00647
:102BE00008D52068C00605D52068C00602D5206833
:102BF000C006F3D42F602E602E612F61CF2020639A
:102C00002068C00608D52068C00605D52068C00623
:102C100002D52068C006F3D42F602E602E612F618C
:102C2000A12020632068C00608D52068C00605D50D
:102C30002068C00602D52068C006F3D42F602E603D
:102C40002E612F61009820632068C00608D5206897
:102C5000C00605D52068C00602D52068C006F3D49A
:102C60002F602E602E612F61A62020632368DB0673
:102C700008D52368DB0605D52368DB0602D5236863
:102C8000DB06F3D42F602E602E612F61A82323630F
:102C90002368DB0608D52368DB0605D52368DB0639
:102CA00002D52368DB06F3D42F602E602E612F61DE
:102CB0003F2323632368DB0608D52368DB0605D59D
:102CC0002368DB0602D52368DB06F3D42F602E6071
:102CD0002E612F61D32323632368DB0608D5236885
:102CE000DB0605D52368DB0602D52368DB06F3D4B3
:102CF0002F602E602E612F6122632268D20608D5D4
:102D00002268D20605D52268D20602D52268D206EC
:102D1000F3D42F602E602E612F61D52222632268AA
:102D2000D20608D52268D20605D52268D20602D579
:102D30002268D206F3D42F602E602E612F6180228C
:102D400022632268D20608D52268D20605D52268F9
:102D5000D20602D52268D206F3D42F602E602E61EF
:102D60002F61D92222632268D20608D52268D206B2
:102D700005D52268D20602D52268D206F3D42F6088
:102D80002E602E612F61F12222632268D20608D5BF
:102D90002268D20605D52268D20602D52268D2065C
:102DA000F3D42F602E602E612F61DA222263226815
:102DB000D20608D52268D20605D52268D20602D5E9
:102DC0002268D206F3D42F602E602E612F6112226A
:102DD00022632268D20608D52268D20605D5226869
:102DE000D20602D52268D206F3D42F602E602E615F
:102DF0002F61DB2222632268D20608D52268D20620
:102E000005D52268D20602D52268D206F3D42F60F7
:102E10002E602E612F6121632168C90608D52168C3
:102E2000C90605D52168C90602D52168C906F3D4AB
:102E30002F602E602E612F61202121632168C90639
:102E400008D52168C90605D52168C90602D52168BB
:102E5000C906F3D42F602E602E612F6102212163F9
:102E60002168C90608D52168C90605D52168C906A3
:102E700002D52168C906F3D42F602E602E612F6120
:102E80008D2121632168C90608D52168C90605D5A9
:102E90002168C90602D52168C906F3D42F602E60C7
:102EA0002E612F61142121632168C90608D521688C
:102EB000C90605D52168C90602D52168C906F3D41B
:102EC0002F602E602E612F61A42121632168C90625
:102ED00008D52168C90605D52168C90602D521682B
:102EE000C906F3D42F602E602E612F612063206805
:102EF000C00608D52068C00605D52068C00602D5E2
:102F00002068C006F3D42F602E60FEF729FE2E61E4
:102F10002F61AF2020632068C00608D52068C00656
:102F200005D52068C00602D52068C006F3D42F60FE
:102F30002E6001B0F0BDC04610B14640F0B584B07F
:102F40000120800500265A4D5A4B029004E0039E52
:102F5000761C082E00D1A8E0286104222A6103967D
:102F6000B0361E631E68F60608D51E68F60605D53F
:102F70001E68F60602D51E68F606F3D42A6028609D
:102F800028612A6100261E631F68FF0608D51F6896
:102F9000FF0605D51F68FF0602D51F68FF06F3D49C
:102FA0002A602860286114462A6110200090186366
:102FB0001F68FF0608D51F68FF0605D51F68FF06B6
:102FC00002D51F68FF06F3D422462C6002982860C1
:102FD000019404E02A602860361D802EB7D0F700E7
:102FE000CE4CE419014610460A460399645C2A60F7
:102FF000294628611C631C68E40608D51C68E406A1
:1030000005D51C68E40602D51C68E406F3D40198D3
:103010000860029A2A6008243C43C0490C190399AD
:10302000645C2A60294628611C631C68E40608D594
:103030001C68E40605D51C68E40602D51C68E40695
:10304000F3D401980860029A2A603C4600990C4328
:10305000B2490C190399645C2A60024628611C631A
:103060001C68E40608D51C68E40605D51C68E4065F
:1030700002D51C68E406F3D42A600298286018245C
:103080002743A649CC190399645C28602A611C6314
:103090001C68E4069ED51C68E4069BD51C68E40603
:1030A00098D51C68E406F3D494E704B0F0BDC0469C
:1030B00090120A4010B14640F0B58BB00A910390CF
:1030C0000620082B04460AD05C07D908002C00D043
:1030D000491C5C084C43E4B2002C00D113E1109F62
:1030E000203AD1B20091484388490A185808019003
:1030F0000025039E0293089709E00646079C049A60
:10310000069D641E521C6D1C002C00D1FBE0082B98
:10311000104615D0182B09D0102B0CD00C2B00D03A
:10312000F1E00C20009948437B4907E024200099F6
:103130004843774902E00098000176490818401991
:10314000099006950492079407230A9A104618409E
:103150000125294681400596F0B2C0006F4C201829
:10316000D2B2D408065D32460A438E43002F114680
:1031700000D03146002F00D016460022099FBA56D3
:103180000992D20700D0314601550A99491CCAB2AA
:1031900019402F468F40D408065D31463943BE435F
:1031A000089F002F0A4600D03246002F00D00E465E
:1031B0000999890700D5324602550A99891CCAB275
:1031C00019402F468F40D408065D31463943BE432F
:1031D000089F002F0A4600D03246002F00D00E462E
:1031E0000999490700D5324602550A99C91CCAB245
:1031F00019402F468F40D408065D31463943BE43FF
:10320000089F002F0A4600D03246002F00D00E46FD
:103210000999090700D5324602550A99091DCAB213
:1032200019402F468F40D408065D31463943BE43CE
:10323000089F002F0A4600D03246002F00D00E46CD
:103240000999C90600D5324602550A99491DCAB2E4
:1032500019402F468F40D408065D31463943BE439E
:10326000089F002F0A4600D03246002F00D00E469D
:103270000999890600D5324602550A99891DCAB2B4
:1032800019402F468F40D408065D31463943BE436E
:10329000089F002F0A4600D03246002F00D00E466D
:1032A0000999490600D5324602550A99C91D0B40B5
:1032B0009D40C9B2CC08025D1146A9431543002FB9
:1032C0000A4600D02A46002F029B059E00D00D46DC
:1032D0000999002900D42A460255701C082B00D1F8
:1032E0000BE7C1B2039A891A019A9142079C02D155
:1032F0000A9A08320A92049A019DA942039E00D1BB
:10330000FEE60646FCE60BB0F0BDC0467C4400007D
:1033100008510000184B0000A4460000A81420200B
:10332000F0B59FB016460D4606901046FDF7C8FE54
:103330000624059444430A21029100F0CBFD3C2170
:1033400004914843201ADA4908180190D9493046B7
:1033500000F074FFFDF7B4FE0390072029462B46CA
:10336000034001273A469A401792D2431692EA1D2B
:103370001D9202403B4693401593DA431492AB1DD5
:103380001C9303403C469C401394E34312936C1DF2
:103390001B9404403D46A5401195EC4310940C1D30
:1033A000254605403E463A46AE400F96F5430E95FB
:1033B000CD1C2E460640B7400D97FE430C968E1C42
:1033C0000B46374607401146B9400B91C9430A9155
:1033D0005F1C3840079282400992D0430890D80879
:1033E0001E901D98C0B2C1081C98C0B2C0081D90A4
:1033F0001B98C0B2C0081C90E0B2C0081B90E8B295
:10340000C0081A90F0B20E46C0081990F8B2019F99
:10341000C00818906021069806E0149A14409C5544
:10342000491C401C662957D0C2B2D200A24B9B183F
:103430001E9A9D5C7A56D40702D0179C254301E062
:10344000169C25401E9C1D55189C1C5D950702D599
:10345000099D2C4301E0089D2C40189D5C55199C4A
:103460001C5D550702D50B9D2C4301E00A9D2C40A5
:10347000199D5C551A9C1C5D150702D50D9D2C43AA
:1034800001E00C9D2C401A9D5C551B9C1C5DD506D3
:1034900002D50F9D2C4301E00E9D2C401B9D5C55D9
:1034A0001C9C1C5D950602D5119D2C4301E0109DCE
:1034B0002C401C9D5C551D9C1C5D550602D5139D22
:1034C0002C4301E0129D2C401D9D5C559C5D002A03
:1034D000A3D5159A1443A2E706990831542206E0B1
:1034E000149804409C55521C491C5A2A58D0C8B202
:1034F000C000714B1B181E981D5C6D488056C40798
:1035000002D0179C254301E0169C25401E9C1D55AA
:10351000189C1C5D850702D5099D2C4301E0089D80
:103520002C40189D5C55199C1C5D450702D50B9DD0
:103530002C4301E00A9D2C40199D5C551A9C1C5D92
:10354000050702D50D9D2C4301E00C9D2C401A9DD2
:103550005C551B9C1C5DC50602D50F9D2C4301E0EC
:103560000E9D2C401B9D5C551C9C1C5D850602D548
:10357000119D2C4301E0109D2C401C9D5C551D9C11
:103580001C5D450602D5139D2C4301E0129D2C4085
:103590001D9D5C559C5D0028A2D515980443A1E7AC
:1035A00064210398FCF72CFE0391069810300690D6
:1035B0000025059C029A07E0002001220799C9070F
:1035C0000790059C254671D00398114600F082FCB7
:1035D00044430A2100F07EFC04994843201A3449F0
:1035E000081806994919602206E0149D2C409C5544
:1035F000521C491C662ADFD03746CBB2DB002E4C6A
:10360000E3181E9C1C5D8556EE0702D0179E3443BE
:1036100001E0169E34401E9E9C55189C1C5DAE0712
:1036200002D5099E344301E0089E3440189E9C5503
:10363000199C1C5D6E0702D50B9E344301E00A9E67
:103640003440199E9C551A9C1C5D2E0702D50D9E78
:10365000344301E00C9E34401A9E9C551B9C1C5D1B
:10366000EE0602D50F9E344301E00E9E34401B9EB1
:103670009C551C9C1C5DAE0602D5119E344301E096
:10368000109E34401C9E9C551D9C1C5D6E0602D5F0
:10369000139E344301E0129E34403E461D9FDC558C
:1036A0009C5D002DA1D5159D2C43A0E71FB0F0BD5A
:1036B0007C4400000000C842A8142020F0B589B066
:1036C00008910790002B52D01C4615460E984108D1
:1036D0000690082800D1891C05910F98049060423B
:1036E000A11E01910026C0B20390224F029517E05F
:1036F0000121284600F0EEFB0A21FCF773FD049837
:10370000009030220A430598704307994018C0B2D0
:103710000899069BFFF7D0FC761CF0B2A04226D297
:10372000FF20B04303998842E2D0F0430019019989
:10373000891BC9B2032901D2012108E0FC22024001
:103740000023012179431B1DDDB29542FAD10322EA
:103750001040029DCDD0012801D10A2005E00228A9
:1037600002D07D20C00000E064204143C1E709B0E1
:10377000F0BDC04610270000F0B583B006461778AC
:1037800038462038C0B25E281CD8082B01D05D080E
:1037900000E0062508980190541C029501980090BD
:1037A000F0B2FAB20D461F46FFF786FC3B462946AB
:1037B000029D7619601C27783A46203AD2B25F2AD9
:1037C0000446EBD303B0F0BDB0B50124A007124905
:1037D000FDF7D2FD1148C16F114A0A40610451182A
:1037E000C16710490A68104B13400B6000228A67BA
:1037F0000E4ACA6022020B6813430B601F23DB02D0
:103800000D689D43E302EB180B60016811430160F2
:10381000816F21438167B0BD645E00008810004065
:10382000FEFFECFF08110040F8FFE0E0409C0000C4
:1038300080B5052040020449086004480021044A7C
:10384000FDF7C0FD80BDC0460CB2424000A0424022
:103850006C5E000080B5FFF7EBFF80BD19480021CA
:10386000016241628221C1641749016583210166B9
:10387000C16516490160164981220A634A634261A3
:10388000144A8A61144A0263826442640A604A608C
:1038900012480221016112490160891C016411482A
:1038A0000168114A0A430260016910220A43026159
:1038B000412000030D490A6A02430A620A68024372
:1038C0000A607047088042408200040081000100C5
:1038D00088804240810005008100060090120A4065
:1038E0000400600090130A400080000528100A4080
:1038F00010B50D4C0D492046FDF7A8FD0C4920469A
:10390000FDF782FD0B4841680B4A0A4018324260BD
:10391000816812220A432D218A43826001680122B4
:103920000A43026010BDC04600A04640845E00000D
:10393000865E000004B1464000FCFFFF70B51748EA
:10394000002404600F200002154E316881430125D8
:103950006802081830600320C143321F13680B400F
:1039600013607168A9437160290272688A437260AA
:1039700000030A212A46FDF7E9FD0A48FDF770FD1C
:1039800030681021014320208143316028033168D1
:10399000014331602046FDF70DFE70BD08030B406A
:1039A00004010B40905E00000548042101604F2196
:1039B000416000218160016805220A43026070476E
:1039C00010E000E010B5144C14492046FDF73EFE0F
:1039D00013492046FDF716FE0321CA031148036868
:1039E000934303600269104B13401A330361426929
:1039F0000A433C218A4342614168012211404368E5
:103A00009343591841609102084B1C680C431C6099
:103A100001681143016010BD00801040B85E0000D5
:103A2000BA5E0000009110400000FFFF2890104097
:103A300080B500F015F8FFF711FFFFF77FFFFFF7E4
:103A4000C1FFFFF755FFFFF7BFFEFFF703FFFFF7CB
:103A5000ABFF2420014900220A5480BD801D202094
:103A6000B0B50A480A4941600A4A51600A4B596098
:103A70000A4C61600A4D69600A4901601160196071
:103A8000216029601020FDF797FCB0BD00080A40B6
:103A9000030000B100280A400088104000A84640FA
:103AA000000800400100002610B512480068C0B2AE
:103AB0000B281ED1AE48C1690F4A13887E2B13D83C
:103AC00013885C1C14800D4AD1540268D20708D0B8
:103AD0000268D20705D00268D20702D00268D20776
:103AE000F3D1C9B2816101E00020108004480121B6
:103AF000017010BD209010402A1E2020A91D2020FA
:103B0000291E20207047000080B5FFF791FF01209B
:103B1000C003044908600449086004A0FCF74CFB9A
:103B200080BDC04680E200E000E100E0426F6172CB
:103B30006420496E6974205B5B202A2A204C434B29
:103B40004642202A2A205D5D0D000000B0B57D218F
:103B5000090241431E480368262206E0E41A051FB5
:103B60002D686419A2188A4210D21C460368A34229
:103B700008D10368A34205D10368A34202D10368B8
:103B8000A342F3D09C42E9D9E41AEBE7B0BDC046AA
:103B9000B0B50F490B684001262206E0E41A0D1F5C
:103BA0002D686419A218824210D21C460B68A342E9
:103BB00008D10B68A34205D10B68A34202D10B6860
:103BC000A342F3D09C42E9D9E41AEBE7B0BDC0466A
:103BD00018E000E0F0B583B001260096112700241C
:103BE00040230193204639462246FEF7A5FB009666
:103BF00080253F2120460B4602912A46FEF79CFB7A
:103C000000967F2039460246019BFEF795FB009601
:103C1000204639462A463B46FEF78EFB0096042591
:103C2000204639462A463B46FEF786FB0096032788
:103C3000182120463A460B46FEF77EFB00962021CF
:103C400020462A460B46FEF777FB009628212046A1
:103C50003A460B46FEF770FB0096302120462A4676
:103C60000B46FEF769FB0096382120463A460B4684
:103C7000FEF762FB0096204602992A460B46FEF7A5
:103C80005BFB03B0F0BD0000F0B583B08E4CFDF7D8
:103C9000B3FE0746206001263040029000902024A9
:103CA0001025204629460E4A2B46FFF765FDBE43E8
:103CB00000960C4A22212046834C2B46FFF75CFDE0
:103CC000FFF73CF95D4800680006E0D40120FFF7EB
:103CD0005FFF5A4800680006D9D4029803B0F0BDCF
:103CE000160020201F002020F0B581B0002801D050
:103CF000154C00E0134C800014490D18012637467E
:103D00002879297800963F22511AC9B2101AC3B2F5
:103D1000FAB2781EC0B2FEF70FFB009670200821A1
:103D200022460B46FFF728FD2D1D7F1C7F2FE7D174
:103D3000FFF704F9FEF7CCFB0120FFF707FF01B006
:103D4000F0BDC0460A0020200D0020207C19202054
:103D500007490A68D20708D00A68D20705D00A685E
:103D6000D20702D00A68D207F3D1C2B28A61704783
:103D70000891104070B500225148032113461446A3
:103D800004E02A46491C801C042C12DA0588C688E7
:103D9000B542F7D2C5888689B542F3D9002C05D043
:103DA000641C032C0D46ECD01546EAE701240B46B3
:103DB000E8E7D11A7D20800200F0AEF870BDC04661
:103DC00070B5012045021D4E3068800516D40124CF
:103DD0002046FFF7DDFE306828420FD130682842C8
:103DE00008D13068284205D13068284202D13068B5
:103DF0002842F3D01248017861400170104C2078BD
:103E0000002802D170BD0020207020780028F9D051
:103E100030682842F9D10120FFF7BAFE3068284205
:103E2000F3D130682842EED130682842EBD13068B7
:103E30002842E8D130682842F3D0E4E780130A40F2
:103E4000A81D202082B0FFF75FFEFEF769FEFDF798
:103E500087FEFFF7EDFD0120C103154A1160154AE9
:103E6000116002211160144A144B5360144B93608B
:103E700013680B431360000212490A6802430A6088
:103E800000200190104C114D114EFEF721FBFDF763
:103E9000B3FD2060FDF7A0FD2860FDF7A5FD3060B3
:103EA000FFF7F2FE0028F0D1FDF7DAFBEDE7C046A0
:103EB00080E200E000E100E000B2424080120040F9
:103EC0009800202004110040981420209C142020E9
:103ED000A014202043088B421AD3002203098B42EE
:103EE00079D3030A8B425ED3030B8B4242D3030C7C
:103EF0008B4227D30902FF2212BA030C8B4202D352
:103F00001212090203D0030B8B4233D31AE0D3E021
:103F1000411A8041401C704703460B4371D443084B
:103F20008B42F5D3002203098B4254D3030A8B4200
:103F300039D3030B8B421DD3030C8B4202D394461F
:103F40006EE0090AC30B8B4201D3CB03C01A524166
:103F5000830B8B4201D38B03C01A5241430B8B421C
:103F600001D34B03C01A5241030B8B4201D30B0305
:103F7000C01A5241C30A8B4201D3CB02C01A52412C
:103F8000830A8B4201D38B02C01A5241430A8B42EF
:103F900001D34B02C01A5241030A8B4201D30B02D8
:103FA000C01A5241CDD2C3098B4201D3CB01C01AF2
:103FB000524183098B4201D38B01C01A52414309FC
:103FC0008B4201D34B01C01A524103098B4201D3EA
:103FD0000B01C01A5241C3088B4201D3CB00C01A57
:103FE000524183088B4201D38B00C01A52414308CF
:103FF0008B4201D34B00C01A5241411A524110006A
:104000007047CA0F00D04942031000D340425340CA
:1040100000229C4603098B422DD3030A8B4212D304
:104020008901FC2212BA030A8B420CD38901921136
:104030008B4208D3890192118B4204D3890137D076
:10404000921100E08909C3098B4201D3CB01C01A48
:10405000524183098B4201D38B01C01A524143095B
:104060008B4201D34B01C01A524103098B4201D349
:104070000B01C01A5241C3088B4201D3CB00C01AB6
:10408000524183088B4201D38B00C01A5241D9D2CE
:1040900043088B4201D34B00C01A5241411A00D24F
:1040A00001465241104663465B1000D340427047C0
:1040B00063465B1000D3404201B50021004201D0AD
:1040C000C9430846C046C04602BD10B500F014F80A
:1040D000EFF300804000800F012800D0002010BDC9
:1040E00010B500F081F8EFF300804000800F012848
:1040F00000D0002010BD000070B501252D050C007A
:104100001C4310D4EC4206D4AC420AD4994200D0ED
:1041100070BD904270BDE94217D4EB4215D499426C
:1041200070BD894270BDEC4206D5AC42F9D58B42D8
:1041300000D070BD824270BD6D004C00EC4204D2D4
:104140005C00EC4201D28B4270BD034C30B4FDF7F1
:104150000DF830BC70BD00BF1900130470B5012507
:10416000ED0704004C4020D4441A01D2001B091969
:10417000C60D4B00F2B2FF2A29D01B0E2CD0000234
:104180000C0228432C43D31ADC40051910D2280A0C
:1041900002D3401C6D0611D0761EF6058019FF2A49
:1041A00000DA70BDC00DC00570BD694000F0A4F814
:1041B00001200543C541521C761CE8E764089C4079
:1041C000C90161408900E7D10124A043E4E71B0E47
:1041D000440200D0034870BD002AFCD1C00FC007C4
:1041E00070BD00BF0000C07F0123DB0502000A4351
:1041F0000DD4DA4203D49A4207D488427047D84299
:1042000014D4D94212D48842704780427047DA42AF
:1042100003D59A42F9D5814270475B004200DA42E9
:1042200004D24A00DA4201D28142704710B5024AF4
:10423000FCF7ECFF10BD00BF0900130470B542008D
:1042400064414B005C41120E39D01B0E38D0FF2A5E
:104250003CD0FF2B3AD0D2187F3A40024902400AA4
:10426000490A4518ED0106004E43000A090A484371
:104270000104731A4019190C4318990F04D05B08F4
:10428000012149075B1A521CD80904D3401CF503CD
:1042900001D19D0607D0FF2A08D2D50506D0E40734
:1042A0002043401970BD0125A843F4E7002A01DC32
:1042B000E00770BD2402FF202043C00570BD1B0E27
:1042C000FF2A03D0FF2B01D0E00770BDFF26360682
:1042D0004500B54206D84D00B54203D8D218FF2A92
:1042E00000D0E7E7004870BD0000C07F70B5012531
:1042F000ED0704004C4022D4441A02D26C40001B4B
:104300000919C60D4B00F2B2FF2A4BD01B0E50D03C
:1043100000020C02A8432C43D31ADC40051B05D530
:10432000AD0019D36D08761E521E37D0F605280A47
:1043300001D2801970BD70416D0603D070BD694017
:10434000FFF712FF9C4009026140490001D0401E66
:1043500070BD0124A04370BD6D081DD001202B0C41
:1043600001D12D0410302B0E01D12D0208302B0F5E
:1043700001D12D01001DAB0F01D1AD00801CEB0F51
:1043800001D16D00401C361A121A6D00680AF5053D
:104390004019012A02DB70BD002070BDC036300A12
:1043A000C00770BD1B0E440201D1FF2B00D1024893
:1043B00070BD002AF0D070BD0000C07F80807F7E7D
:1043C0007D7C7B7A7978777676757473727171708B
:1043D0006F6E6E6D6C6C6B6A6A696868676666653D
:1043E0006464636362616160605F5F5E5E5D5D5CCB
:1043F0005C5B5B5A5A59595858575756565555553C
:104400005454535352525251515050504F4F4F4E9B
:104410004E4D4D4D4C4C4C4B4B4B4A4A4A494949E9
:10442000484848474747474646464545454444442B
:104430004443434343424242424141418182838457
:1044400085868788898B8C8D8E8F91929395969790
:10445000999A9C9D9FA0A2A3A5A7A8AAACAEB0B212
:10446000B3B5B7B9BCBEC0C2C5C7C9CCCED1D4D70D
:10447000D9DCDFE2E6E9ECF0F3F7FAFE0000000039
:1044800000000000002F00000000070007000014DB
:104490007F147F1400242A7F2A12006264081323E9
:1044A00000364955225000000503000000001C2280
:1044B0004100000041221C000014083E08140008BE
:1044C000083E0808000000A060000008080808086E
:1044D000000060600000002010080402003E514906
:1044E000453E0000427F40000042615149460021A4
:1044F00041454B31001814127F10002745454539BE
:10450000003C4A4949300001710905030036494918
:10451000493600064949291E0000363600000000D1
:10452000563600000008142241000014141414141C
:1045300000004122140800020151090600324959C5
:10454000513E007C1211127C007F49494936003EE1
:1045500041414122007F4141221C007F494949419C
:10456000007F09090901003E4149497A007F080896
:10457000087F0000417F4100002040413F01007F53
:1045800008142241007F40404040007F020C027F1F
:10459000007F0408107F003E4141413E007F090931
:1045A0000906003E4151215E007F09192946004657
:1045B000494949310001017F0101003F4040403F2E
:1045C000001F2040201F003F4038403F0063140878
:1045D0001463000708700807006151494543000053
:1045E0007F41410000552A552A55000041417F0076
:1045F000000402010204004040404040000001026B
:104600000400002054545478007F48444438003853
:104610004444442000384444487F003854545418DB
:1046200000087E0901020018A4A4A47C007F0804ED
:1046300004780000447D4000004080847D00007FBD
:10464000102844000000417F4000007C04180478DA
:10465000007C0804047800384444443800FC2424D6
:1046600024180018242418FC007C080404080048BE
:104670005454542000043F444020003C4040207CDF
:10468000001C2040201C003C4030403C00442810CE
:104690002844001CA0A0A07C004464544C44141482
:1046A00014141414000000000000000000000000BA
:1046B0000000FC000000000002000000000C020CE2
:1046C000020000000000000090D0BCD0BC900003AD
:1046D000000300001824FE448C00030207020100BE
:1046E0001824D8B04C80000300010201C038E4381F
:1046F000E0000102020102020806000000000000C2
:1047000000000000000000F80402000000010204A4
:10471000000204F800000004020100009060F8604C
:1047200090000000010000002020FC20200000007C
:10473000010000000000000000000806000000006A
:1047400020202020200000000000000000000000C9
:1047500000000002000000000080601C0200040352
:1047600000000000F8040404F80001020202010045
:104770000008FC000000000203020000188444242A
:10478000180003020202020008042424D8000102D7
:104790000202010040B088FC80000000000302001B
:1047A0003C242424C400010202020100F824242C29
:1047B000C0000102020201000C04E41C040000001D
:1047C00003000000D8242424D800010202020100C2
:1047D00038444444F80000030202010000001000C5
:1047E00000000000020000000000200000000000A7
:1047F00006000000002050880402000000000102B2
:10480000909090909000000000000000000204884A
:1048100050200002010000001804C4241800000009
:1048200002000000F804E494F80001020202020011
:1048300000E09CF0800002030000030204FC24243A
:10484000D800020302020100F80404040C00010273
:104850000202010004FC0404F80002030202010049
:1048600004FC24740C0002030202030004FC247400
:104870000C00020302000000F0080444CC400001D8
:104880000202010004FC2020FC04020300000302D9
:104890000404FC040400020203020200000404FCFD
:1048A000040406040403000004FC24D00C040203E6
:1048B0000200030204FC04000000020302020203DF
:1048C000FC3CC03CFC0003000300030004FC30C4BB
:1048D000FC04020302000300F8040404F8000102CF
:1048E0000202010004FC242418000203020000005C
:1048F000F8848404F80001020207050004FC246423
:104900009800020302000302182424448C000302CE
:10491000020201000C04FC040C000002030200006F
:1049200004FC0000FC04000102020100047C80E0A1
:104930001C040000030000001CE03CE01C0000031D
:1049400000030000049C609C0400020300030200BA
:10495000041CE01C04000002030200000C84641C20
:1049600004000203020203000000FE020200000035
:1049700007040400000E30C0000000000001020027
:10498000000202FE0000000404070000000402040C
:104990000000000000000000000000000000080807
:1049A00008080808000002000000000000000000E5
:1049B0000040A0A0C00000010202030204FC20206D
:1049C000C00000030202010000C0202060000001BE
:1049D0000202020000C02024FC00000102020302C7
:1049E00000C0A0A0C0000001020202000020F824C4
:1049F00024040002030202000040A0A0602000077F
:104A00000A0A0A0404FC2020C00002030200030278
:104A10000020E4000000000203020000000020E487
:104A2000000008080807000004FC80E020200203C2
:104A3000020003020404FC00000002020302020060
:104A4000E020E020C00003000300030020E020205D
:104A5000C00002030200030200C02020C0000001C9
:104A60000202010020E02020C000080F0A0201001D
:104A700000C02020E0000001020A0F0820E04020D2
:104A800020000203020000000060A0A0200000023D
:104A9000020203000020F8200000000001020200D2
:104AA00020E00020E00000010202030220E020805C
:104AB00060200000030100006080E08060000003CF
:104AC0000003000020608060200002030003020059
:104AD00020E0208060200808070100000020A0607E
:104AE0002000000203020200000020DE020000009D
:104AF00000070400000000FF00000000000F00009D
:104B00000002DE2000000004070000000201020491
:104B1000040200000000000000000000000000008F
:104B20000000000000000000000000F8000000008D
:104B3000000000333000000000100C06100C0600CE
:104B4000000000000000000040C07840C078400035
:104B5000043F04043F040400007088FC0830000097
:104B6000001820FF211E0000F008F000E0180000EF
:104B700000211C031E211E0000F0088870000000A8
:104B80001E2123241927211010160E0000000000FA
:104B90000000000000000000000000E01804020017
:104BA000000000071820400000020418E000000088
:104BB0000040201807000000404080F08040400086
:104BC0000202010F01020200000000F000000000DC
:104BD0000101011F010101000000000000000000B0
:104BE00080B0700000000000000000000000000025
:104BF00000010101010101010000000000000000AE
:104C00000030300000000000000000008060180448
:104C1000006018060100000000E010080810E00025
:104C2000000F102020100F00001010F800000000EE
:104C30000020203F20200000007008080888700035
:104C400000302824222130000030088888483000B5
:104C50000018202020110E000000C02010F80000D5
:104C600000070424243F240000F80888880808006E
:104C70000019212020110E0000E010888818000083
:104C8000000F112020110E0000380808C838080055
:104C90000000003F000000000070880808887000D5
:104CA000001C222121221C0000E010080810E00056
:104CB0000000312222110F00000000C0C0000000DF
:104CC0000000003030000000000000800000000004
:104CD00000008060000000000000804020100800FC
:104CE00000010204081020004040404040404000C5
:104CF00004040404040404000008102040800000A0
:104D00000020100804020100007048080808F000A4
:104D10000000003036010000C030C828E810E00074
:104D20000718272423140B000000C038E0000000FF
:104D3000203C23020227382008F888888870000069
:104D4000203F202020110E00C0300808080838003D
:104D5000071820202010080008F808080810E000B4
:104D6000203F202020100F0008F88888E808100055
:104D7000203F20202320180008F88888E808100029
:104D8000203F200003000000C03008080838000061
:104D900007182020221E020008F808000008F80862
:104DA000203F210101213F20000808F808080000E9
:104DB0000020203F2020000000000808F80808001C
:104DC000C08080807F00000008F888C02818080094
:104DD000203F20012638200008F8080000000000CD
:104DE000203F20202020300008F8F800F8F80800C4
:104DF000203F003F003F200008F830C00008F808BE
:104E0000203F200007183F00E01008080810E000CD
:104E10000F10202020100F0008F808080808F000E4
:104E2000203F210101010000E01008080810E00007
:104E30000F18242438504F0008F88888888870009C
:104E4000203F2000030C302000708808080838003C
:104E50000038202121221C00180808F80808180032
:104E60000000203F2000000008F808000008F808B3
:104E7000001F202020201F000878880000C8380864
:104E8000000007380E010000F80800F80008F800DC
:104E9000033C0700073C0300081868808068180876
:104EA00020302C03032C30200838C800C8380800F4
:104EB0000000203F2000000010080808C838080043
:104EC0002038262120201800000000FE02020200E7
:104ED0000000007F40404000000C30C00000000097
:104EE000000000010638C00000020202FE000000BF
:104EF000004040407F000000000004020202040065
:104F000000000000000000000000000000000000A1
:104F10008080808080808080000202040000000089
:104F20000000000000000000000080808080000081
:104F30000019242222223F2008F80080800000006F
:104F4000003F112020110E00000000808080000032
:104F5000000E112020201100000000808088F80041
:104F6000000E112020103F20000080808080000073
:104F7000001F222222221300008080F088888818D7
:104F80000020203F202000000000808080808000E2
:104F9000006B94949493600008F800808080000077
:104FA000203F210000203F20008098980000000052
:104FB0000020203F20200000000000809898000082
:104FC00000C08080807F000008F8000080808000A2
:104FD000203F24022D302000000808F800000000C7
:104FE0000020203F20200000808080808080800082
:104FF000203F20003F20003F808000808080000014
:10500000203F210000203F200000808080800000A1
:10501000001F202020201F008080008080000000D2
:1050200080FFA12020110E00000000808080800001
:10503000000E112020A0FF808080800080808000F2
:1050400020203F212000010000008080808080001F
:105050000033242424241900008080E08080000094
:105060000000001F202000008080000000808000E1
:10507000001F202020103F20808080000080808042
:1050800000010E30080601008080008000808080D2
:105090000F300C030C300F000080800080808000F7
:1050A0000020312E0E312000808080000080808022
:1050B00080818E70180601000080808080808000D2
:1050C0000021302C2221300000000000807C0202F0
:1050D00000000000003F404000000000FF00000012
:1050E00000000000FF0000000002027C80000000C1
:1050F0000040403F000000000006010102020404DD
:10510000000000000000000000000000000000009F
:10511000000000000000000000000000000000008F
:10512000000000000000000000000000000000007F
:1051300000F0F0F0000000000000000000017F011E
:105140000000000000000000001C1C1C000000000B
:1051500000008060301C8C60301C0C0000000000DF
:10516000000000000000000000000000000000003F
:1051700000000000000000E00000000000E000006F
:105180000086E69F86868686E69F860000011F01D0
:10519000010101011F010100000080C06020F82012
:1051A000E0C00000000003070C18FF70E181000060
:1051B0000000070F10107F100F07000080602060B4
:1051C00080000000E02000000F3020309F70DC37AE
:1051D0001030C0000000100E030007181018070060
:1051E0000000C02020E0C0000000000080E01F3868
:1051F000E88703C43C040000070F1810100B070DCC
:105200001010080000808C4C3800000000000000E6
:10521000000000000000000000000000000000008E
:10522000000000000000000000000000000080E01E
:10523000300804000000000000FEFF010000000034
:10524000000000000000030F182040000004083098
:10525000E0800000000000000000000001FFFE00F0
:1052600000000000004020180F03000000000000B4
:10527000000000000000C000000000000042666660
:105280003C18FF183C666642000000000000030066
:10529000000000000000000000008000000000008E
:1052A000001010101010FF1010101010000000005F
:1052B00000000300000000000000000000000000EB
:1052C00000000000000000000000000000000000DE
:1052D00000808C4C3800000000000000000000003E
:1052E000000000000000000000101010101010104E
:1052F000101010000000000000000000000000007E
:10530000000000000000000000000000000000009D
:10531000000000000000000000001C1C1C00000039
:10532000000000000000000000000000E0380C0059
:105330000000000080701C03000000000060380EB8
:105340000100000000000000000080C0602020601C
:10535000C080000000FEFF010000000001FFFE0011
:105360000001070E181010180E07010000008080C1
:1053700080C0E000000000000000000000FFFF000F
:105380000000000000001010101F1F10101000007F
:105390000080402020202060C08000000003030027
:1053A000804020381F070000001C1A191818181810
:1053B000181F00000080C020202060C08000000076
:1053C000000303001010182FE780000000070F10E3
:1053D000101010180F070000000000000000C0E0CF
:1053E000F000000000C0B088868180FFFF80800050
:1053F000000000000010101F1F1010000000E060EF
:10540000606060606060000000003F1008080818DD
:10541000F0E0000000070B101010101C0F0300003C
:10542000000080C040202020E0C0000000FCFF21E0
:105430001008080818F0E0000001070C1810101000
:10544000080F03000000C0E06060606060E0600082
:10545000000003000000E01807000000000000004A
:10546000001F1F00000000000080C06020202020DE
:1054700060C080000087EF2C1818303068CF8300A0
:1054800000070F0810101010180F07000000C0C010
:1054900020202020C0800000001F3F6040404020AE
:1054A00010FFFE0000000C1C101010080F0300007D
:1054B00000000000000000000000000000000000EC
:1054C000000E0E0E0000000000000000001C1C1C5E
:1054D00000000000000000000000000000000000CC
:1054E00000000000000C0C000000000000000000A4
:1054F000005838000000000000000000000000809C
:10550000402010000000102844820100000000002C
:10551000000000000000010204081000000000006C
:1055200000000000000000000084848484848484DF
:1055300084848400000000000000000000000000DF
:10554000000010204080000000000000000000006B
:10555000000001824428100000001008040201002D
:105560000000000000C020201010101030E0C0002B
:105570000003030000F010080C0703000000000007
:105580001C1C1C0000000000000000C04060202027
:105590002040C00000FCFF01F00E03C1FE03807F2D
:1055A0000001070E0811111011090402000000008B
:1055B00080E0E000000000000000807C4340477F66
:1055C000F880000010181F1000000000131F1C10AE
:1055D00020E0E02020202060C080000000FFFF10BD
:1055E000101010182FE78000101F1F10101010103F
:1055F000180F0700000080C0402020202060E0003D
:1056000000FCFF0100000000000001000001070E87
:10561000181010100804030020E0E0202020204093
:10562000C080000000FFFF000000000001FFFE003E
:10563000101F1F10101018080E07010020E0E020B6
:10564000202020202060800000FFFF101010107C20
:1056500000000000101F1F1010101010101806007E
:1056600020E0E020202020206060800000FFFF106C
:105670001010107C00000100101F1F10000000001F
:1056800000000000000080C06020202040E00000FA
:1056900000FCFF0100004040C0C140400001070E77
:1056A000181010100F0F000020E0E0200000000094
:1056B00020E0E02000FFFF101010101010FFFF008E
:1056C000101F1F1000000000101F1F1000002020DE
:1056D00020E0E020202000000000000000FFFF008C
:1056E0000000000000001010101F1F10101000001C
:1056F00000000000202020E0E0202020000000002A
:10570000000000FFFF0000000060E0808080C07F9C
:105710003F00000020E0E020000020A060202000EA
:1057200000FFFF30187CE3C000000000101F1F10B6
:10573000000001131F1C181020E0E02000000000F2
:105740000000000000FFFF0000000000000000005B
:10575000101F1F10101010101018060020E0E0E0BD
:1057600000000000E0E0E02000FF013FFEC0E01E7E
:1057700001FFFF00101F1000031F0300101F1F1068
:1057800020E0E0C0000000000020E02000FF000357
:10579000071C78E08000FF00101F100000000000D0
:1057A000030F1F00000080C060202060C080000048
:1057B00000FEFF010000000000FFFE000001070ED8
:1057C000181010180C07010020E0E02020202020F5
:1057D00060C0800000FFFF2020202020301F0F002D
:1057E000101F1F100000000000000000000080C01B
:1057F00060202060C080000000FEFF01000000006B
:1058000000FFFE000001070E1111133C7C67210010
:1058100020E0E0202020202060C0800000FFFF105A
:105820001030F0D0080F0700101F1F1000000003F9
:105830000F1C10100080C060202020204040E0009D
:1058400000070F0C1818303060E08100001F0C08B2
:1058500010101010180F07008060202020E0E020BA
:10586000202060800100000000FFFF000000000118
:1058700000000000101F1F100000000020E0E020CA
:10588000000000000020E02000FFFF0000000000FA
:105890000000FF0000070F1810101010100807007C
:1058A0002060E0E02000000020E060200000077F92
:1058B000F88000807C03000000000000071F1C0728
:1058C0000000000020E0E02000E0E0200020E020D8
:1058D0000007FFF8E01FFFFCE01F00000000031FAF
:1058E0000300011F03000000002060E0A000002072
:1058F000E0602000000000038F7CF8C6010000007B
:105900000010181E130001171F1810002060E0E09F
:105910002000000020E06020000001073EF8E018B1
:105920000700000000000010101F1F1010000000F2
:1059300000806020202020A0E0E020000000000087
:10594000C0F03E0F0300000000101C1F17101010C5
:10595000101806000000000000FC04040404040009
:105960000000000000FF0000000000000000000038
:10597000007F404040404000000010E00000000078
:105980000000000000000000031C60800000000018
:1059900000000000000000030C7080000000040400
:1059A000040404FC0000000000000000000000FFF0
:1059B00000000000000040404040407F0000000028
:1059C00000000010080C040C08100000000000008B
:1059D00000000000000000000000000000000000C7
:1059E00000000000000000000000000000000000B7
:1059F00000000000000000000000000080808080A7
:105A0000808080808080808000000004040808007E
:105A10000000000000000000000000000000000086
:105A20000000000000000000000000000000000076
:105A30000000000000000000000098D84464242406
:105A4000FCF80000000F1F18101010081F1F10187E
:105A50000020E0F000000000000000000000FFFF58
:105A6000180804040CF8F00000001F0F18101010A4
:105A7000180F0300000000000000000000000000FC
:105A800000E0F8180404043C3800000000030F0C88
:105A90001010101008060000000000000000002098
:105AA000E0F0000000E0F81C04040408FFFF000020
:105AB00000030F18101010081F0F0800000000004E
:105AC00000000000000000000000E0F848444444EA
:105AD0004C7870000000030F0C1810101008040020
